:020000040020DA
:10000000BC3200208D0220008B91200089912000BD
:100010008991200089912000899120000000000032
:100020000000000000000000000000008991200096
:100030008991200000000000899120002992200071
:100040004B92200051922000579220005D92200098
:10005000000000002F92200035922000899120009E
:100060008991200000000000000000000000000056
:100070000000000000000000899120000000000046
:1000800000000000000000008991200089912000FC
:100090008991200089912000899120008991200078
:1000A0008991200089912000899120008991200068
:1000B0008991200089912000899120008991200058
:1000C0008991200089912000899120008991200048
:1000D00089912000000000000000000000000000E6
:1000E0000000000000000000000000000000000010
:1000F00000000000000000004517200055172000F8
:1001000000000000000000000000000000000000EF
:1001100000000000000000000000000000000000DF
:1001200000000000000000000000000000000000CF
:1001300000000000000000000000000000000000BF
:1001400000000000000000000000000000000000AF
:10015000000000000000000000000000000000009F
:10016000000000000000000000000000000000008F
:10017000000000000000000000000000000000007F
:10018000000000000000000000000000000000006F
:10019000000000000000000000000000000000005F
:1001A000000000000000000000000000000000004F
:1001B000000000000000000000000000000000003F
:1001C000000000000000000000000000000000002F
:1001D000000000000000000000000000000000001F
:1001E000000000000000000000000000000000000F
:1001F00000000000000000000000000000000000FF
:1002000000000000000000000000000000000000EE
:1002100000000000000000000000000000000000DE
:1002200000000000000000000000000000000000CE
:1002300000000000000000000000000000000000BE
:1002400000000000000000000000000000000000AE
:10025000000000000000000000000000000000009E
:10026000000000000000000000000000000000008E
:10027000899120003916200051162000AD0F200072
:1002800089912000E10A20008991200008B5094BDE
:10029000FF221A600848094A4824E3690849121AEB
:1002A00098470848084AA3690021121A984700F0A5
:1002B0000FF9FEE7B4200D4040000020FE010020B1
:1002C000A0A8200000020020BB2A002030B50F4C5F
:1002D0000F4D22688BB00132E97B0E48226001F09D
:1002E00023FB22680C4902A801F02EFB02A808F0AB
:1002F0001DFF42F616630093084B024602A91868D8
:100300002B4609F07BF90BB030BD00BF2402002062
:100310004817002010A620002CA620001002002064
:10032000F0B5028885B09C2A05462BD0B72A00F08C
:1003300081800ABB544B8521186802F0FBF89C238E
:1003400018E043F622530382504801F0EDFA30687A
:1003500005F034FE33684E48198A5A8A49BA52BAAF
:1003600089B292B201F0E0FA4A484FF4F05108F035
:10037000FEFFB7232B8003E000230380032081E0EE
:1003800001207FE08529FBD14AF6AA260024684691
:100390004149ADF80240ADF80440ADF80640ADF873
:1003A0000840ADF80A40ADF80C40ADF80E40ADF88D
:1003B000006009F0ECF821460122684604F086FA54
:1003C000364B4FF47F425A81FE229A8134484FF4D3
:1003D00080725C809C80DC801C811E80DA8108F049
:1003E00061FF304801F0A0FA2F4C04F1600714F8C7
:1003F000023C267C53B1012E08D8204605F0DEFDD4
:100400000A2008F037FF0EB9012323742034BC42C0
:10041000EDD1002042F61661024605F0DFFB234EC7
:100420000446306000288CD1214808F03BFF2C8026
:10043000022027E01F4B1B788B420CD11E4B1B78F0
:100440009B0708D51D4B002219681D4B1D481B88B2
:10045000CA5401F069FA0F4808F0A4FF002888D0B8
:100460000C4808F08DFF02F05BF94FF4F053B0FB3D
:10047000F3F101FB1301144A144889B2002301F07F
:100480005DFE76E705B0F0BD1C030020AAA62000A3
:10049000D0A6200014020020681F0020481700206A
:1004A00045A6200060A62000F627002010020020AC
:1004B00078A62000B12A0020842400209024002067
:1004C0005C1F0020EAA62000CD02200028020020A8
:1004D000F7B500F05FFC00F003FD00F09DFC00F0BC
:1004E0005DFA01F0D5F908F06BFF00F0F1FC08F0BF
:1004F000D3F8022008F04CFE01F0A2FF00F036FC19
:1005000000F0E4F9002000F045FB012000F042FB80
:100510004349002000F014FC02F0F0F808F08DFED2
:10052000042008F035FE3F4808F0BCFE3E4808F0C5
:10053000B9FE3E4801F0F8F93D4B3E4C186808F012
:10054000B1FE3D4801F0F0F93C4B0025186808F079
:10055000A9FE3B4801F0E8F93A4B186808F0A2FE02
:10056000002002F0EDF801F087F83748002102F092
:100570000DF801F0CFFD6846082101F09BF99DF8C8
:1005800007309DF8067043EA07276B4603CB2060CF
:1005900061602E4801F0C8F9615D2D48013501F018
:1005A000C3F9072D234EF7D12A4DF1792A4801F0DE
:1005B000BBF9EC6A4AF6CD310220A0473946032048
:1005C000A04719210120A04769466B6B082209202A
:1005D000984707F0BFF8214A336813607368536087
:1005E00007F01CFA1E48002101F0D0FF00F09AFC31
:1005F00000211C4801F0CAFF08F0B8FE1A4808F0B4
:10060000ABFE00F0B9FB082008F0C2FD00F0BAFB19
:1006100001F02EFF10F0FF0FF8D101F0D1F8F5E74F
:10062000B92620000DA7200019A7200031A720001F
:10063000A0A52000B32A002038A72000ACA52000E8
:100640003FA72000D8A52000AC00002046A720002E
:1006500064A72000D8A420006AA72000681F0020FB
:10066000440100205000002018A4200070B5058827
:100670000446772D30D07E2D3FD0002D4DD101F096
:10068000D7FE294B1870294B1D601D462B68284A40
:10069000264E52F823204AB126480021C1549368BF
:1006A00080209847336801333360EFE7224A1370A4
:1006B000772320E01F4AD256002A12DB1B4A136818
:1006C00001331360194B1C4A1B6812789342F1DB0B
:1006D0001A4B1B68002BEBD0184A00231360134AF7
:1006E000EFE7114A00201178114A52F8232001F057
:1006F00021FF30B97E23238013E00B4B1B788B4204
:100700000FD10A4B0B491A688B5C03F07F038B54A3
:100710000A4A136801331360D0E7002303800320E3
:1007200070BD012070BD00BF9E2A0020480200203D
:10073000600000209F2A00200E1D00204C02002097
:10074000094B1A780023934204DA084951F8231020
:10075000814207D106490748CA5C62F07F02CA5449
:1007600001F02CBF0133EEE70E1D002060000020D9
:100770009F2A00205000002008B50948082108F0F1
:1007800031FD03210422002000F0B8FB002000F01E
:100790001FFB04480021032200F052FB012008BD8A
:1007A00000900D406908200008B50948102108F0A4
:1007B00019FD04210A46022000F0A0FB022000F0EF
:1007C00007FB04480221042200F03AFB012008BD87
:1007D00000B00D406908200008B50948202108F044
:1007E00001FD05210422022000F088FB022000F018
:1007F000EFFA04480221052200F022FB012008BD87
:1008000000B00D406908200008B50948402108F0F3
:10081000E9FC06210422022000F070FB022000F017
:10082000D7FA04480221062200F00AFB012008BD85
:1008300000B00D406908200008B50948802108F083
:10084000D1FC07210422022000F058FB022000F016
:10085000BFFA04480221072200F0F2FA012008BD85
:1008600000B00D406908200038B5054611480C4617
:1008700008F0BAFDE8B10F48102108F0A3FD1DB93A
:10088000032C16D10C4810E0022D12D1042C01D1FA
:100890000A480AE0052C01D1094806E0062C01D1DE
:1008A000084802E0072C04D10748BDE83840FFF7AC
:1008B00047BF38BD5002002020A4200040A42000E3
:1008C00050A4200030A4200060A420000148002192
:1008D00008F078BD5002002010B5074CFF232360BC
:1008E0004FF4FA6000F096F800213022062000F064
:1008F00021FB0023236010BD00920D40802870B5BD
:100900001ED1104E104D3368002423F08003336055
:100910002B68204643F080032B600C4B07211C60A2
:10092000224600F0EBFA3368204623F040033360A0
:100930002B68062123F040032B60012200F0DEFA31
:10094000002070BD20940D4000940D4000920D4099
:10095000F8B500F083F80F4B0024D3E900673A465E
:10096000B04238BF7A1C15460443C3E90045DFF89E
:1009700028E0DEE90001821B61EB070312196B41DD
:10098000CEE9002301F0BEFC18B1BDE8F84001F04B
:1009900049BCF8BD00020020080200200F4B104A9D
:1009A0001A6053F8042C42F0050243F8042C53F863
:1009B000042C42F0020243F8042C0A4A136843F064
:1009C00001031360084B00221A60042243F80C2C28
:1009D000012243F8082C0F22DA62704714E000E08D
:1009E00047E8010008200D400C000340034BD3E909
:1009F0000023100A40EA0360704700BF0002002095
:100A0000034BD3E90023D00B40EA4340704700BFBB
:100A100008020020054B18601C3B1A6842F00102D6
:100A20001A601A68D207FCD4704700BF2800034040
:100A300010B5064C236823F001032360FFF788FFFD
:100A4000236843F00103236010BD00BF10E000E005
:100A5000014B1868704700BF58020020074B084A36
:100A6000196804331B681268120442EA0323054A1A
:100A70000B43106843EA0060704700BF40500D40D0
:100A800048500D404C500D4010B50446114B1B68AA
:100A9000DB07FBD508F0D5FBFFF7E0FF231A062B99
:100AA000D8BFC41D0C4B220E1A60C4F3074243F892
:100AB000042CC4F3072243F8082CE2B243F80C2CB0
:100AC00008F0BBFB054B91201C60BDE8104000F016
:100AD0007FB900BF50500D404C500D4058020020CF
:100AE00008B500F053FE064B002291201A6000F07A
:100AF00087F9912000F078F9BDE8084001F07CBD4D
:100B0000580200200023084A1068084A99580842F1
:100B100005D01A44D268906910F0800003D02C33BD
:100B2000582BF0D10120704728200D4080A42000D0
:100B3000164A38B52C2303FB00234FF6BF72DC683E
:100B40000546236C62649BB213F050020DD0A3697A
:100B5000DB0609D40E4B53F825301BB12068C0B218
:100B60009847F4E72368F2E738BD13F4D06F0BD051
:100B70004FF440732363FF236360E36AE262E3623E
:100B8000236B43F00103236338BD00BF80A4200022
:100B90005C0200202DE9F04F012885B0064600F2E6
:100BA000BF802C244443604B1D1995F920A005F10A
:100BB0002007BAF1000F9946C0F2B28095F92230B1
:100BC000002BC0F2AD80594800F052FE584A59F847
:100BD00004301168EC680B43136051686B6895F939
:100BE00021B00B4353609168AB6895F822800B43AA
:100BF00093600023C4F8C83F2B690BEBCA021A604C
:100C000095F823305FFA88FC01939DF80430604624
:100C100019462A7DCDF80CC0029300F079F9029BA9
:100C2000DDF80CC019466046082200F067F94FFA5B
:100C300088F840494FEA08389DF9042058F8010027
:100C4000012303FA02F2024348F801204FEA0A3A6C
:100C50005AF8010003FA0BF202434AF8012050222D
:100C6000A263A26B95F8240042F4D062A263022230
:100C700062634FF440722263AA696262EA69A26207
:100C80007022E26242B2002A0C4614DB95F925106C
:100C9000294D41EAC20129607979120315594FB2F1
:100CA000BB402B431351002200F028F9234A13685C
:100CB00043F4004313602C2303FB069393F8265060
:100CC00020336FB2002F1CDB93F807A0EDB25FFA60
:100CD0008AF82846414601223F0300F019F94FFAED
:100CE0008AFA3A59012303FA0AF313433B510822C3
:100CF0002846414600F002F9104A136843F4804345
:100D000013602C2303FB0696F26896F82800136BF9
:100D100043F00103136305B0BDE8F04F00F058B88D
:100D200005B0BDE8F08F00BF80A42000050B2000B7
:100D300028200D4020940D4004410D4030D000404B
:100D400001289CBF014B43F8201070475C02002033
:100D5000012808D8044B2C2202FB0030C3689A6992
:100D60009206FCD41960704780A42000014B002239
:100D70001A60704700500D40014B08221A607047FE
:100D800000500D40024BA0221A6050221A6070479A
:100D900000500D40084A094B1A60094B80321A6016
:100DA000084B80321A60084B80321A60074B4FF4B0
:100DB00000121A60704700BF00E100E070020020DE
:100DC00064020020680200206C02002008ED00E0B0
:100DD000044B41091A6800F01F000123834042F8C8
:100DE0002130704770020020044B41091A6800F05E
:100DF0001F000123834042F8213070476402002025
:100E0000044B41091A6800F01F000123834042F897
:100E1000213070476C020020054A064B1A60064BD1
:100E20001A68064B1340B3F1807FF8D1704700BFBA
:100E30000101020100200D4004200D4000000101CD
:100E4000024B02EBC10243F82200704774020020FB
:100E5000F8B507460E46094D002405EB411547FA43
:100E600004F3DB07E1B204D555F824300BB130466A
:100E700098470134082CF2D1F8BD00BF740200205D
:100E80002DE9F04780464FEA0837DFF8409007F138
:100E9000804505F5592500F079FCD5F8186457F818
:100EA00009404FEAC80A24FA0AF446EA0400E4B208
:100EB000C0B24146F6B204FA0AF4FFF7C9FFC5F81A
:100EC0001C6447F80940BDE8F08700BF18970D4043
:100ED00002480021802208F0DBB800BF7402002025
:100EE000034A044B1A60044B803A1A60704700BFF3
:100EF00080400D40F8020020F4020020034B01EB7B
:100F0000C0011B6843F82120704700BFF802002091
:100F1000034B01EBC0011B6843F82120704700BF61
:100F2000F4020020024A136843F030031360704754
:100F300000700D400E2870B50BD1164B164E1C6874
:100F400044F002051D60356825F03F0343F00103BE
:100F50003360124E336823F0FF031A4311430143F9
:100F600031600F4B1B681B06FBD50E4B0E4A1B68EE
:100F700012680E2803F0FC0343EA022308BF064A66
:100F80009BB204BF1560034A9BB208BF146018B23D
:100F900070BD00BF34000144F486084008700D4065
:100FA00000700D400C700D4010700D4010B58F207A
:100FB000064CFFF725FF8F20FFF716FF206818B1BA
:100FC00001F0FCFA0023236010BD00BFFC020020EA
:100FD000084B93F90020002A09DB074AED21116034
:100FE0001160E32111601A7862F07F021A7001200B
:100FF000704700BF0F1D002038880840094B1B6850
:101000009B07FBD4084BED221A601A60074A12684E
:101010000AB1EF221A60064A0120137803F07F0319
:10102000137070474C860840388808402C8608406A
:101030000F1D002038B5A0F10B04E3B20F2B0546BD
:1010400013D80B4B1B6813F03F0302D0FFF7D6FFFA
:10105000012304EB8404074A0B3414600BB1FFF73F
:10106000B7FF054BE8B21D7000E0FF2040B238BD6D
:10107000488608403C860840FC01002010B50B4B18
:101080001B68990603D1FFF7A3FF012300E00023AB
:10109000074A1268D207FBD5064A1468C4F3001445
:1010A0000BB1FFF7ABFF204610BD00BF48860840DC
:1010B000648608404C860840044B186800F0220003
:1010C000A0F1200358425841704700BF4C860840A9
:1010D000024B186800F04000704700BF4C86084083
:1010E00038B50C4600296CD00D286CD8DFE800F02C
:1010F000070D181A216B3142476B5E606267334BF4
:101100001B68003318BF012356E0314B05221B68D2
:1011100003F07F030B3B93FBF2F30B33DBB24BE0AB
:101120002C4B00E02C4B1A68043B1B6843EA02235B
:1011300042E02A4B002008601A68243302F00102C2
:101140000A601B6813F0200337D042F002020A60E5
:1011500038BD234B1A680023D2B2224901EBC300E9
:101160000079904202D851F8333025E001330E2B3C
:10117000F3D11FE01C4B1B685BB2493B1CE01B4BCF
:101180001B68990603D1FFF723FF012300E000232A
:10119000174A1268D207FBD5164A1568493DEDB2C9
:1011A0000BB1FFF72BFF6DB2256006E00B2303E0C8
:1011B0001A2301E06FF017032360002038BD0723D6
:1011C000FAE7022038BD012038BD00BF2C86084058
:1011D0003C860840CC850840D485084000860840FD
:1011E0004086084010A520005886084048860840E0
:1011F000648608406086084038B505460C46134BA7
:101200001B689B07FBD4124B93F90030002B01DBCA
:10121000FFF7DEFE0F4BEE221A60691E1A60A21C59
:1012200043F8102C2144022000F03EFA013C0A4908
:1012300024012143022000F049FA022000F050FA74
:10124000022000F065FA002038BD00BF4C8608403F
:101250000F1D00203888084002C001C0F8B51F4BA0
:1012600093F90030002B0DDBFFF7F8FB0446FFF786
:10127000AFFEFFF7F3FB6FF009031B1BC342F8D46B
:10128000012600E00026FFF7F9FE18B3144C23688E
:1012900099061FD4134DE9232B60042723689A076E
:1012A00007D4013F17F0FF0703D00620FFF7B2FB7A
:1012B000F4E723689B0704D4EE232B6001242B6002
:1012C00004E0206810F00200FBD1044626B1FFF7CD
:1012D00095FE01E00220F8BD2046F8BD0F1D00205C
:1012E0004C86084038880840044B1A6810B142F018
:1012F000010201E022F001021A60704700860840F6
:1013000038B50C46072855D8DFE800F0040F1B1F3E
:1013100026543B4F012903D1FFF75AFE002038BD68
:10132000002949D1FFF76AFEF8E7A1F10B030F2B63
:1013300042D8C8B2FFF77EFE431C0CBF032000203A
:1013400038BD8CB2E2B21D4B02E08CB21C4BE2B253
:10135000240A1A605C60E1E731F003052CD101F04A
:101360000100FFF7C1FF174B14F002001A681BBF02
:10137000284642F0200222F020021A6008BF1A60BC
:1013800038BD01F118031F2B16D80D230E49DA00C2
:1013900051F83300844204DC8B181A790B4B1A6025
:1013A000BCE713F1FF33F1D2B8E7CCB2084B4934B4
:1013B0001C60B3E7012038BD022038BDC885084055
:1013C000D08508402486084010A5200040860840AB
:1013D0005886084009280DD1082A0DD161B1074B64
:1013E000013953F8042D01F8012F054A9342F8D131
:1013F000002070470120704702207047C8850840D0
:10140000A885084009280DD1082A0DD161B1074BE4
:10141000083111F8012D43F8042F054A9342F8D101
:10142000002070470120704702207047A4850840C3
:10143000C485084070B52B4E336813F0400308D0C4
:10144000294D2B68DCB21B0605D5284BED221A600E
:101450001A60002070BD042CF7D9023C8C42F4DCE9
:10146000E4B2032C1BD001190139032000F024F948
:10147000631E1F491B010320194300F027F90320B5
:1014800000F02EF9032000F043F9032000F04CF99E
:101490000028FAD129682D682806D6D506E02B68E1
:1014A00003702B6843702B688370F3E7493949B2A6
:1014B00089B2042006F088FA032005F07F0106F0C7
:1014C00083FA33685A060BD5064B1B681B0603D5F7
:1014D000084801F073F803E0044BED221A601A602B
:1014E000204670BD4C86084028880840388808404F
:1014F00002C0010C84000020F8B52B4E357815F0A1
:1015000001054ED1294B01241C605C609C60A3F551
:101510009323A3F51473F8221A600922C3F89021CB
:10152000152270331A6003F59B230B2203F59E737B
:101530001A60A3F59B23A3F5F07340221A601A6882
:101540007F2742F020021A60D52243F81C5CDF623C
:10155000DA61174B1878FFF76DFD164A8D20136876
:1015600043F004031360FFF733FC134B8E201F601E
:10157000FFF72EFC022000F0BFF81049022000F017
:101580009BF8032000F0B8F803200C4900F08CF819
:101590000B48294600F0FAFF337820462343337086
:1015A000F8BD0020F8BD00BF0F1D0020A8200D4091
:1015B000FC0100208C86084094860840288808405A
:1015C0008400002038B503880446E3B140F2B93204
:1015D000934203D000230380032038BD822915D114
:1015E00006F090F906F02CF98021FFF723FF002880
:1015F00005DD80B206F01EF90C4B1B6998470C4BB9
:101600001A78520604D440F2B9332380012038BD41
:1016100000221A70074B1D68FFF7F0FCFFF76CFF04
:10162000AB06F0D0FFF7D4FCEDE700BFD8A5200053
:101630000F1D00204886084008B5034800F0BEFF93
:10164000024B00221A6008BD840000203488084044
:10165000064B07481A68042A1FBF06490A7842F059
:1016600040020A7000221A6000F0A8BF2C880840CF
:10167000840000200F1D002010B5094C00212046D9
:10168000402207F005FD074B01221A602E205C6006
:10169000FFF79EFBBDE810402F20FFF799BB00BF6E
:1016A0000000002004F00F4003289EBF014B000102
:1016B000195070470000002003289EBF024B03EB27
:1016C00000104160704700BF0000002003289EBF4B
:1016D000024B03EB00108160704700BF0000002048
:1016E00003289FBF034901230A6883409CBF13431B
:1016F0000B60704728F00F4003289FBF0349012368
:101700000A6883409CBF13430B60704720F00F4072
:1017100003289FBF034901230A6883409CBF1343EA
:101720000B60704714F00F4003289FBF044B03EB7E
:101730000010806800F0070088BF0020704700BFDD
:1017400000000020024B4FF0FF321A60704700BFCC
:1017500004F50F40014B01221A6070474CF00F4016
:10176000094B1A6812F4801F1A46F9D1043B196814
:1017700021F4803119601168C903FCD41A6842F45D
:1017800000321A60704700BF04200D4010B50A4BAC
:101790001A681C4612F0030F0CD0084B1A6851014E
:1017A000FBD41A685201FCD5FFF742F9FFF7D8FFC6
:1017B0000023236010BD00BF58200D4004200D40C1
:1017C00038B5254B1C6814F03F0413D1234B53F854
:1017D000243023B1984768B10134032CF6D1204D51
:1017E0002B783BB1FFF734F90446FFF737F9201A9D
:1017F000092801D830BF38BD002CFBD0194B1A681E
:1018000022F400321A60184A1168C902FBD4196820
:1018100041F4803119601368DB03FCD5FFF71EF932
:10182000201A092803D8BDE83840FFF799BF63287C
:101830000E4C02D92B78022B00D00123236000F03C
:101840006FFE20B1FFF78CFF0023236038BDFFF748
:10185000FFF80028CED1F5E74886084000030020B5
:10186000101D002000200D4004200D4058200D4088
:101870000023064A52F82310814206D011B942F8DB
:10188000230070470133032BF3D17047000300207E
:10189000054B00221A60054A136843F004031360E5
:1018A000034B01221A70704758200D4010ED00E0E4
:1018B000101D002030B5184B1A78431E3AB9174A4C
:1018C0001278122A03D1164A12784B2A03D001F556
:1018D0002011273117E04A0802F12814B4F1281F1B
:1018E00004D014F8015D03F8015FF7E701F520115A
:1018F00027310023934205DA11F801598418E55481
:101900000133F7E730BD074A914204D011F80129AD
:1019100003F8012FF7E730BD2B0028002A0028002C
:1019200029002800270028000FB407B504AA52F8A0
:10193000041B0448019200F039F803B05DF804EB91
:1019400004B07047940000200EB43FB5094B07AABD
:1019500052F8041B0190049304A801AB0392059371
:1019600000F024F8019B00221A7006B05DF804EB29
:1019700003B070474393200070B505460C46102C09
:1019800007D92B68686808491022984750B9103C5D
:10199000F5E734B12B6868682246BDE8704002491B
:1019A0001847204670BD00BFF2A720002DE9F04F78
:1019B00080468FB0069107920026069B1B78002B6D
:1019C00000F05F83069B1C4613F8012B1AB9069B97
:1019D0009C4203D10FE0252AF5D1F8E7069BD8F801
:1019E0000400E51A0699D8F800302A4698470028DE
:1019F00040F02A832E442378002B00F04283637842
:101A0000611C002B00F03D8300240A4611F8013BC5
:101A10002B2B11D006D8202B11D0232B12D144F020
:101A20000804F2E72D2B04D0302B0BD144F0100426
:101A3000EBE744F00104E8E744F00604E5E744F08E
:101A40000204E2E7A3F1310108290DD8134600256D
:101A50001A4613F8011BA1F13000092811D80A22F7
:101A600002FB0515303DF3E72A2B09D1079B013214
:101A70001D68191D002D0791B8BF44F0010400E056
:101A8000002513782E2B1CD15178531CA1F1300066
:101A900009280ED8194600270A780B46A2F1300013
:101AA000092801F101010FD80A2303FB0727303F62
:101AB000F2E72A2906D1931C079A111D079117688E
:101AC00002E013464FF0FF371A786C2A09D15A7892
:101AD0006C2A02D144F080040AE0013344F060042F
:101AE0000BE0682A09D15A78682A03D144F020040F
:101AF000023302E0013344F040041A78642A3CD0F7
:101B00001FD8462A48D00DD8252A5AD003D8002AF3
:101B100000F0B78257E0412A4AD0452A53D144F415
:101B2000424450E0582A31D004D8472A4BD144F4DB
:101B3000A13448E0612A38D0632A44D144F4A06437
:101B400041E06E2A3AD007D8662A22D027D3672AE6
:101B500028D0692A11D036E0732A2CD006D86F2AF3
:101B600011D0702A2FD144F440742CE0752A07D08C
:101B7000782A28D144F4C85425E044F4245422E0BF
:101B800044F410641FE044F488541CE044F4B2446C
:101B900019E044F4007416E044F4844413E044F47F
:101BA000024410E044F481340DE044F4C1340AE00E
:101BB00044F4E13407E044F4806404E044F4E06475
:101BC00001E044F4C0640133069304F4E063B3F528
:101BD000806F00F0AA8116D8B3F5807F2BD0B3F5C3
:101BE000407F7FF4EAAE079BA04914F4804F03F1D5
:101BF00004029F4818BF08460DF1330107920F46B3
:101C00001A680023C5E1B3F5C06F08D0B3F5E06FE3
:101C100000F03182B3F5A06F7FF4CFAE00E2D8F8C8
:101C20000030D8F80400934901229847002840F07A
:101C30000B820136C1E6002FACBF24F0100401274F
:101C400014F40053039304F0E00337D0402B17D073
:101C500008D8DBB1202B2AD1079B1A1D079293F9D4
:101C6000002017E0602B11D0802B20D1079B073379
:101C700023F0070303F108020792D3E900230AE0E7
:101C8000079B1A1D0792B3F9002003E0079B1A1D5A
:101C900007921A68D317002A73F1000109DA524239
:101CA00063EB4303CDE900234FF0010933E0002249
:101CB0000023CDE900234FF000092CE0402B16D083
:101CC00007D8CBB1202B20D1079B1A1D07921A7879
:101CD000EEE7602B10D0802B17D1079B073323F042
:101CE000070303F108020792D3E90023E1E7079B0A
:101CF0001A1D07921A88DBE7079B00211A1D07921D
:101D00001B681846CDE90001D5E700220023CDE984
:101D100000234FF0000904F4C053B3F5805F0CD0EA
:101D2000B3F5C05F33D0B3F5006F4FD1DDE90023C9
:101D30000DF1360ACDE9042304E0DDE900230DF1BD
:101D4000360A15E0DDE9042313433AD0DDE9040146
:101D50000A22002306F0B8FDDDE9040130320AF85A
:101D6000012D00230A2206F0AFFDCDE90401E9E7C9
:101D700052EA030125D002F0070130310AF8011DB3
:101D8000D10841EA4371D8080A460346F0E7384BC8
:101D900014F4804F0DF1360A344908BF1946DDE9C5
:101DA000002352EA03000CD002F00F00085C4FEA57
:101DB000131E0AF8010D100940EA0370024673462B
:101DC000EFE70DF1360BCAEB0B0B03E00DF1360A12
:101DD0004FF0000B41F6080241F208035F4502EAAA
:101DE00004028CBFCBEB070700279A4202D1002FD9
:101DF00008BF012741F608018A4207EB0B030DD10A
:101E0000DDE9000150EA010208D01B4914F4804FBB
:101E10001A4A4FF0020C18BF0A4602E04FF0000CBD
:101E200062460399A1B1B9F1000F0AD104F006018D
:101E300002290AD00629124904BF4FF0010C0A46B4
:101E400006E04FF0010C0F4A02E00F4A4FF0010C80
:101E500063449D428CBFED1A002514F0010922D184
:101E6000E30613D52F444D461DE000BFBDA720005B
:101E7000CEA72000F0A72000E2A72000DFA72000C7
:101E8000E7A72000E5A720003DA7200040462946FF
:101E9000CDF80CC00092FFF76FFD009ADDF80CC082
:101EA000002840F0D180BCF1000F0DD01146D8F8C9
:101EB00000306246D8F80400CDF800C09847DDF83D
:101EC00000C0002840F0C0803C465E44102CD8F88A
:101ED00000300DD9D8F804006C491022CDF800C0AC
:101EE0009847002840F0B080103CDDF800C0EDE7D6
:101EF0005CB1D8F8040065492246CDF800C0984787
:101F0000DDF800C0002840F09F80D8F80030D8F8F5
:101F1000040051465A4666449847002840F0948091
:101F20003E44B9F1000F79D073E0079BD3F800A0CD
:101F30001A1D0792BAF1000F09D05346994699F835
:101F400000200133002AF9D1CAEB090903E0DFF8C8
:101F500040A14FF00609002F02DBB94528BFB94662
:101F60004D458CBFC9EB0505002514F0010405D1D2
:101F700040462946FFF700FD002865D1D8F800301B
:101F8000D8F8040051464A46984700285CD14E4490
:101F90003EE052EA030E0ED002F00F0E10F80EE0F3
:101FA0004FEA131C01F801ED4FEA121E4EEA037EC0
:101FB00072466346EDE70B467F1A01BF30220127C8
:101FC00001F1FF3301F8012C03377822BD4203F8F9
:101FD000012C4FF0300203F8022C88BFED1B4FF0AC
:101FE000230298BF002514F00104A3F1030903F8AC
:101FF000032C04D140462946FFF7BEFC20BBD8F88D
:102000000030D8F8040049463A469847E0B93E44C3
:1020100024B140462946FFF7AFFCA8B92E44CCE4D2
:10202000079B012D03F104021B688CBF05F1FF35EE
:10203000002514F0010407928DF8203008D14046A5
:102040002946FFF799FC10B14FF0FF301AE02E44FB
:10205000D8F80030D8F8040008A9012298470028D1
:10206000F2D16F1C2CB140462946FFF785FC0028B1
:10207000EAD13E44A1E4079B1A1D1B6807921E602B
:102080009BE430460FB0BDE8F08F00BFADA7200045
:10209000E9A72000F8B50388064615462BB14A2B60
:1020A00015D0002303800320F8BD174807F0ADF9D1
:1020B00004462CB1201DA16807F059F92468F8E7FF
:1020C000124B01221A704A2333800120F8BD88295F
:1020D000FBD10D4807F099F90446002CF3D0231DDD
:1020E0009D420ED10848214607F099F9084B6269D4
:1020F0001F681A60A2691D460AB1E06990472F6007
:10210000E1E72468E9E700BF0C030020111D00206F
:102110001C03002010B5064B002406481C7007F075
:1021200071F92146BDE81040034800F02FBA00BF06
:10213000111D00200C0300209C00002070B50446F7
:102140000A4DE3610A4B2E681B786661A26133B1C8
:10215000084B201D2B6007F00AF92E6000E0A160FB
:102160002146BDE87040044807F06DB91C0300200B
:10217000111D00209C0000200C03002070B5094BAD
:1021800005461B783BB1084C084B26680430236099
:1021900007F0F6F826602946BDE87040044807F0CD
:1021A00052B900BF111D00201C0300209C0000201C
:1021B0000C03002010B5084B04461B781BB10430FB
:1021C00000F0A8F801E0C36003612146BDE81040BB
:1021D000024807F024B900BF111D00200C030020A5
:1021E00010B50E4C236813B90D4A136010BDFEF7ED
:1021F000FDFB216891E80C001A44131A8A6842B169
:1022000092E812002144091A8B4228BF0B469268BB
:10221000F5E71844024B186010BD00BF1003002002
:1022200014030020014800F0C9B900BFAC00002031
:10223000F8B5038805462BB1592B09D0002303803C
:102240000320F8BD1E4A136059232B800120F8BDDE
:10225000872920D08229F7D1194F00263C68002C0D
:10226000F2D0204607F0C0F890B1E06888212246FD
:1022700000F060F950B9E060A3680EB1B36000E00F
:102280003B600023A360FFF7ABFFE5E7FFF7CAFF62
:102290002646A468E3E70A490B680BB90B60D3E74D
:1022A000D868904201D19B68F7E70B6099680029D4
:1022B000CAD0C86890420ABF89680B469960F5E7A2
:1022C0001003002010B50446FFF7ACFFE3680B4A8B
:1022D0004BB113683BB1A34203D1094A1268DA60DB
:1022E00007E09B68F6E7064B1B68E3601368146021
:1022F000A360BDE81040FFF773BF00BF10030020CC
:102300001C030020024B1868003018BF01207047E2
:102310001003002010B50B4A04461368984206D1FA
:102320008368136008E09A68A24203D01346002B2A
:10233000F9D103E0A2689A60FFF752FF0023A3607F
:10234000E36010BD1003002038B5836804460D46D5
:102350009BB10A4804600220A07304F10C00984766
:102360000238012801D9832D05D120462146BDE838
:10237000384000F005B80123A37338BD1C030020CA
:102380002DE9F8431C4A0446156889462B469046B9
:102390001A4E3768A34204D00BB11B68FAE7BDE8B8
:1023A000F88334B3A37BABB10023A37345B1AC4234
:1023B00004D028468721224606F0FCFF2D68F5E769
:1023C000A3683BB14C4505D0346004F10C00832177
:1023D0002A469847D8F800309C4203D12268064B21
:1023E00005E0134623B11A68A242FAD122681A60A6
:1023F0003760BDE8F88300BF240300201C030020E1
:1024000010B5094B00221A70084B1C685CB1E37BC5
:102410003BB101230022A373E27320468221FFF720
:1024200093FF2468F2E710BD161D0020240300204E
:10243000024B1878421C1A70704700BF171D00200D
:10244000064B8A221A70064A00231370054A13703D
:10245000054A1360054A1360704700BF171D00202E
:10246000131D0020151D0020240300201C03002044
:102470002DE9F041214E33780BB1FFF7C1FF204D1C
:102480002C78002C34D0DFF88CE00C229EF8003041
:102490001C495A4388181C4F895CDFF87C804268CD
:1024A000DFF878C08068013303F01F03013C397006
:1024B000C8F80020CCF800008EF800302C7088B9E5
:1024C000124C134B1B68236023688BB133780BB11C
:1024D000FFF796FF20683978D8F8002006F06AFFE9
:1024E0002368EFE7812904BF0123837306F062FFAD
:1024F000337828781844BDE8F08100BF161D00200D
:10250000151D002028030020141D0020200300209A
:1025100024030020131D002018030020A80400201D
:10252000024A034B10781B7818447047151D002091
:10253000161D0020F0B50C4E3478202C11D00B4B1A
:102540000B4D1B780B4F234403F01F032B700C25FE
:102550006B430134FD18A860F9546A6034700020A0
:10256000F0BD0120F0BD00BF151D0020131D00208F
:10257000121D00202803002038B5034C256806F002
:1025800019FF256038BD00BF1C03002010B50A46A6
:1025900009490C68234683420DD00BB11B68FAE74A
:1025A00048B1046008600121817383818121BDE805
:1025B0001040FFF7E1BF10BD2403002038B1837B3A
:1025C000013B012B9FBF024A0123C3731370704765
:1025D000161D0020024610B5064853600468029B91
:1025E00011609360026014B90846FEF74DFA0020AE
:1025F00010BD00BFAC04002010B5084C206858B1D5
:1026000000232360816843689847236823B1BDE8AD
:1026100010401868FEF738BA10BD00BFAC040020A7
:1026200038B505880446672D09D0792D2ED0002DA8
:1026300032D1FFF7FDFE1B4B18701B4B1D601B4872
:1026400006F03EFF431C01D167231DE00A28164B0C
:1026500007D01A687E2AF2DC511C1960144B98547A
:10266000EDE7196800254A1C1A60114A0D4B5554B4
:1026700028461978FFF75EFF0E4B852118682A4619
:10268000FFF758FF20B97923238009E0852907D176
:10269000054B00221A60D2E700230380032038BDD7
:1026A000012038BDA82A0020B8040020B004002072
:1026B000991D00201C0300200D2810B5014615D0DF
:1026C0000B4C23782BB90B4806F0E6FE48B90123E2
:1026D00006E00A2805D1074806F0DEFE08B100230F
:1026E00023700548FFF76AFF012010BD002010BDD0
:1026F000981D0020B0040020BC00002008B505484B
:102700000549802206F0C1FEBDE8084003480021CB
:10271000FFF73CBFB0040020181D0020BC000020C3
:10272000054A136843F004031360044B1B68906967
:1027300043EA002080B2704700700D4014700D40D5
:10274000174A136823F00C031360164B01221A601A
:102750001A68012AFCD1144B08221A60E322C3F83C
:10276000142203F505731946104B1B68DB07FBD5D4
:10277000102000230E4A0138126802F0010243EAD9
:1027800002034FEA43039BB2F4D1002BF0D0094A75
:10279000180A03F0FE0310601360EF230B6070470C
:1027A00000700D40A8200D40248608406486084033
:1027B0009C86084014700D4008B5064803F008FADE
:1027C000054B01221A7000225A70AA229A70DA7000
:1027D00008BD00BFC92920001A1E002010B50F4CEB
:1027E0000220A17905F0F0F8A379112B01D0062B76
:1027F00005D1238D618D9942A8BF194608E03A2B77
:1028000005BF94F8281094F82930002143EA0121EB
:102810000120BDE8104005F0D7B800BF701F0020B0
:1028200010B513780446087A83F0020398421DD14C
:10283000487A5378984219D1887A9378984215D17A
:10284000C87AD378984211D1087B137998420DD178
:10285000487B5379984209D1887B9379984205D176
:10286000C87BD379984201D103201BE00B890F4A22
:102870006BB94B89B3F57F4F09D18B89FE2B06D1FC
:102880001368C989022023F8021B13600AE0136849
:1028900051F8080F083343F8080C486843F8040C53
:1028A00013600120A040C0B210BD00BFC4040020CE
:1028B00010B5084C01462378012B08D1A01C082232
:1028C00006F0DAFA00280CBF2046002010BD0020D8
:1028D00010BD00BF1A1E002008B50146102005F0EB
:1028E00081F8044B04489B6800219847BDE80840E4
:1028F000FEF748BAF8A52000FD28200010B50846CC
:102900000C46114602F0D0F9044B1B6813B19B68CA
:1029100020469847024B1C6010BD00BFF009002004
:10292000D80400202DE9F8434FEA1219B9F10F0F2E
:1029300080461D4602F00F040BD00F2C05D1B9F1D3
:10294000000F0AD11024274619E0B9F1000F09D071
:1029500004E00F2C4FF0100900D1102440464A46E5
:1029600006F0BCFA09EB04020F2A274606DC08EB46
:1029700009000021C2F1100206F08AFBBCB1114D22
:10298000C7F110002E6840443146224606F0A6FAF0
:10299000022C08D1B9F10A0F9FBFFF2388F80B3032
:1029A000FE2388F80C3034442C60BDE8F883B9F17C
:1029B000000F05D040462946BDE8F84306F0E7BDC4
:1029C000BDE8F883C40400202DE9F04F944E954DE6
:1029D000002387B033702B70044604F093FF04F09B
:1029E0002FFF914F04213860092004F0EDFF8F4B39
:1029F0008DE860001B680BB1FFF7F0FE04A80CB96E
:102A00008B4900E0214607F000FB8A4B8A4E1A886A
:102A100003933E2A40F20B82D7F800A0874D0AF1BB
:102A200002032B60009B06F1180093F8009000232E
:102A300009F102090AF80930FFF73AFF20B906F157
:102A40000800FFF735FF20B10AF103032B60802453
:102A500000E0044672783078130943EA0013DBB2D1
:102A6000990841EA8313DBB212F00F0FD9B2DFF8F5
:102A7000CC8100F00F000ED16F4E76885EB910B990
:102A800012F0F00F21D0D8F80030702603F8011BA7
:102A9000C8F800301AE078B912F0F00F0CD12968AC
:102AA00023F03F031A43664B0A701B88033121F859
:102AB000023C6826296009E05F4A2B68106860269E
:102AC000186003F8041B2B6000E078265A4B9A79B3
:102AD0000293112A08BF46F0040673075EBFD8F8B8
:102AE000003003F8012BC8F80030029BDB79402B43
:102AF00006D0FF2B07D0012B08D146F001060BE0D2
:102B000046F0020608E046F0030605E0D8F800208B
:102B100002F8013BC8F80020029A474B128982B99B
:102B20005A8972B99A8962B9DA8952B91A8A42B94C
:102B30005A8A32B99A8A22B9DB8A13B944F0400022
:102B400013E04048FFF7B4FE3F4B186078B142787D
:102B50001AF80930042043EA02130AF80930394907
:102B60003A4AFFF75DFE60F03F00C4B228E0029BE6
:102B700031491A8948F2FE039A420CD14B8B53B962
:102B80008B8B43B9CB8B33B9042008312F4AFFF725
:102B900047FE2043E9E7D8F80020DFF8A8C09646B2
:102BA0000CF1100B634603CB5B45CEF80000CEF86A
:102BB00004109C460EF1080EF4D1204B10321A601E
:102BC000DFF874B09BF81830FF2B40F08D809BF835
:102BD000192044F0080C022A5FFA8CFC38D1BBF8AB
:102BE0001A30ABBBBBF81C3093BBBBF81E307BBBB1
:102BF000BBF8203063BBBBF822304BBBBBF82430A2
:102C000033BB9BF826301BBBD8F800309BF827203D
:102C100044F00B0003F8012BC4B2C8F80030A2E066
:102C2000191E0020241E0020D0040020F0090020DE
:102C300080A820005C1F0020701F0020C40400201A
:102C4000721F0020781F0020BC040020681F002095
:102C50009C4B588B194688BB988B78BBD88BA8B9EE
:102C6000188C98B9588C88B993F8240070B92968E1
:102C700044F00A00C4B2084600F8012B33F8252FAF
:102C8000043121F8032C9B78837015E0C98B8D4BA0
:102C9000A1B9198C91B993F8221079B9296844F037
:102CA0000900C4B2084600F8012B53F8232F06315F
:102CB00041F8052C1B790371296054E0824ADFF842
:102CC0001C82146808F11009A646434603CB4B4505
:102CD000CEF80000CEF8041098460EF1080EF4D19C
:102CE0001034146064463EE00BF11800FFF7E0FD7D
:102CF000764B186050B143781AF8091044F0040478
:102D00000B43E4B20AF8093000200EE048F2FE035B
:102D1000BBF818209A4210D1BBF81A306BB9BBF837
:102D20001C3053B9BBF81E303BB90BF1180104AA93
:102D3000FFF776FD2043C4B215E0634ADFF89C81BB
:102D4000D2F800E008F11009F446434603CB4B45A6
:102D5000CCF80000CCF8041098460CF1080CF4D123
:102D60000EF110031360019A5649282313708B79D2
:102D7000112B51D14FF2B0030A8D52BA92B222F008
:102D80000F0080B2984215D14B8D5BBA23F00F0330
:102D90001B041B0C83420DD12868F32303704B8D59
:102DA0001A0A0B8D1B0A02EB031303F5AA63437087
:102DB000831C27E0029B43495B8D5BBA03F47F438E
:102DC000B3F5704F09D12B68F1221A700A8DA3F860
:102DD00001204A8D120ADA700CE002F47F42B2F54B
:102DE000704F2B6808D1F2221A700A8D120A5A709D
:102DF0004A8D5A80043305E0F0221A70886A053340
:102E000043F8040C2B60324B1A882B6823F8022BF2
:102E1000019A2B6030231370009B3A681B78D654BC
:102E200013445C70284B1B689B1A009A19E03A689F
:102E300041231370009B06F128051C78631CDBB24C
:102E40001344324603CAAA4218605960164603F179
:102E50000803F6D1009B29341C70019B019A1B7852
:102E60002833102013700DEB000104F0BBFD194B4B
:102E7000DFF86C901B689847174B30EA200428BF96
:102E800015245B699847039BC4F17D041D88019B51
:102E9000241A1E78009BAA1B93F80080DFF844B028
:102EA000C8EB04039A42DFF840A040F3CC8004F062
:102EB000C3FD7823B5FBF3F50135A84216DC0020ED
:102EC000D2E000BF701F0020C4040020BC0400201A
:102ED0009E1F0020C8A52000F8A52000881F002004
:102EE0005C1F0020191E0020241E0020D7F800803F
:102EF0009AF8005041462A4608F1040006F064F8AA
:102F0000B9F800305A4A6FEA83436FEA9343C3F338
:102F1000072388F80030B9F80030043588F801300C
:102F20001388EDB2190A88F803300133DFF854C171
:102F300088F8021013809BF80010631B23F007032E
:102F40004C4E61441A4608EB0500CDF808C08AF8DB
:102F500000503360019305F0C1FF019B581980B206
:102F600004F068FC04F06EFDDDF808C0804665469C
:102F70000028A4D004A8FFF7AFFC404604F09AFD57
:102F8000404604F081FD3C4A13689046012B96D0E0
:102F9000043B012B93D99BF800B03368053C5B449C
:102FA0001FFA83FB05238AF80030344B24F0070412
:102FB0001A68B9F8003034606FEAC3436FEAD3434C
:102FC000C3F307231370B9F8003053702C4B1B88E0
:102FD0009B4548D23A684FEADB0111713268CBEB6E
:102FE00003039342B8BF234A3868B8BF1360009BFD
:102FF000346893F80090224605EB0B01484405F035
:103000006DFF09EB040080B204F014FC04F01AFD1B
:10301000044600283FF453AF04A8FFF75DFC2046A8
:1030200004F048FD204604F02FFD124B1B689B4422
:10303000D8F800301FFA8BFB012B3FF440AF043B64
:10304000012BC3D83BE738680E494044314405F0B2
:1030500045FFB9F800004044801B80B204F0EAFB51
:1030600004A8FFF739FC012007B0BDE8F08F00BFCE
:103070005C170020D4040020D8040020D0040020D5
:103080005C1F0020701F00202DE9F04FA04FA14EC3
:1030900087B000243C70347004F0D2FB9E4DB846DB
:1030A0002860042004F098FC9C4B00B218609C48F7
:1030B00006F09AF9DFF894B2009518B1994BABF885
:1030C00000401C80009B1B6819785D7845EA01254B
:1030D00001F0F801C0291AD0E02926D19F7893F891
:1030E00004A0DB78BBF8004043EA07273378C5F338
:1030F0000A050533337004F0B7FB204434784FF0F1
:103100000009041BAC42B4BF0024012494E29F7860
:10311000DB78002443EA07273378C5F30A05043334
:1031200033704FF00109A24686E27E4B00241C80DA
:10313000A14627462346A2462546ABF80040BBF8E9
:103140000020AAB1002D00F09182764B1B88AB4283
:1031500040F08C82744B1B88BB4240F087820F206A
:1031600004F04CFC0146714806F054FFD8B97DE2EA
:1031700040F213516A1E92B28A4214D81BB1B9F1BF
:10318000000F00F07382674B4FF480611D80664B27
:1031900063481F8006F016F90F2004F02FFC01464B
:1031A000624806F032FF3778052F00F0CD81009B92
:1031B0001968CA5D02F0E003602B40F0AC81B81CD6
:1031C0000F4497F801B00844594B5FFA8BF10E0693
:1031D000186044BF0130186012F0100F0091554E76
:1031E00002F008012FD1D1B9196831F8010FA6F802
:1031F00001008978F170196811F8040B19608308CF
:1032000003F00F0141F060013170717803F0300379
:1032100043EA801301F00F010B4373702EE018682E
:1032200060210746317017F8011B03304FEA910EF9
:103230000EF0300E01F00F014EEA01017170398875
:10324000186071801AE001F0FF0791B919680878D9
:10325000C0F3830040F06000307011F801EB77801C
:103260004FEA9E0000F0300040EA8E107070196046
:1032700004E06023337000237370738002F0040352
:1032800003F0FF0101912B4F2BB929490B6813F86B
:10329000010BB8710B6012F003020BBF244A264BDE
:1032A00013689B5C09BF13F8011BFB711360F97174
:1032B0001BF0400FCBF301124AD0009B190641BF0F
:1032C0001549144B09681B7851BF00215B18997888
:1032D000090982B1194B1878012805D1587888421C
:1032E0000CBF1946002100E00021154B1960002990
:1032F00040F0BA8128E11146124B0F209A5C0391ED
:10330000029204F07BFB039903460F4829E000BFBB
:10331000191E0020241E0020D0040020C00400201C
:10332000C80400205A17002058170020A92A00209E
:10333000C4040020DC0400202DA820001A1E002058
:10334000BC04002046A82000E40400205E170020F2
:10335000A64B0F209A5C029204F050FBA44903464E
:10336000A448029AFFF7DEFA0BF008000BF0030204
:1033700000F0FF010BF00403B0B1002B4AD19E4BCB
:103380001B88ADF81430531E012B9FBF9B490B685F
:1033900013F8010B0B609A4B98BF8DF815009A5CDF
:1033A000984805A9002333E0002B27D0009B1B067B
:1033B00041BF9549954B09681B7851BF0B465B1877
:1033C000997801F00F0392490878012804D14878D0
:1033D000984218BF002100E000218E4B0091196037
:1033E000002900F0B1808C4B102013F802B004F0DB
:1033F00005FB009903460231824808E07B4B102010
:1034000013F802B004F0FAFA794903467D485A46A7
:10341000FFF788FA98F80000784900F1280388F847
:103420000030019B002B56D00B681A7802F0F8028E
:10343000F02A50D11122BA711A7802F0040E02F06B
:10344000F302F03A5FFA8EFE032A7DD8DFE802F03D
:10345000020A1622B3F8012005333A8533F8022C0C
:103460007A852CE0B3F801203A85DA78A2F580520B
:1034700092B2120242F0F0027A8509E05A78A2F57F
:10348000805292B2120242F0F0023A855A887A854E
:10349000043314E05A7802331209A2F5756292B22D
:1034A000120242F0F002328513F8012C02F00F02F2
:1034B000A2F5756292B2120242F0F00272850B60C0
:1034C000BEF1000F04D10B6833F8022BFA850B60B4
:1034D000303088F800004C4A0B6812689B1A4B4A3F
:1034E000137065B904F0C0F9484B1B78C01A98F8FE
:1034F00000301844283803123B71787104E0A5F1BC
:1035000028031A123A717B71BA79444B112A1BD1E4
:103510009A889A8518E0412A40F0A8807A1CD2B295
:103520008B18DFF8F8E003F1280C72461868596828
:10353000083303C263459646F7D198F8003029371F
:103540002833377088F8003004F08EF92F4E337826
:10355000834200F28B8004F087F93378304AC71A2F
:10356000176040F2145298F800B00BEBCA0A0AEB4D
:10357000070191427AD8244A2848116850441944D6
:103580003A4605F0ABFCDFF8AC80264E65B1B9F1E8
:10359000000F02D032885A4432800CB1358007E0E7
:1035A00032883A44328003E007EB0B02A8F800208F
:1035B00033881BB1B8F800209A4257D1B8F80040C0
:1035C00019482246154905F089FC184B1C80184CF7
:1035D0000023A8F800303380236823B1FFF7FEF8FA
:1035E00023685B68984702F019FB3FE031A8200090
:1035F00035A82000E40400202BA82000C4040020EB
:1036000037A82000F4040020D0040020241E00204D
:103610001A1E0020BC04002046A82000DC04002064
:10362000D40400205E170020701F00205C1F0020C3
:10363000F00900205A170020BBF8003093B1B9F10F
:10364000000F0FD00F2004F0D9F90146094806F009
:10365000E1FC18B9084B1880084B18804FF001099D
:103660004B466CE501236AE5023145E607B0BDE84B
:10367000F08F00BFA92A00205A1700205E170020F3
:1036800037B5124B124D1C782B796A79C4EB0323A2
:1036900013449BB2ADF80630BDF8063005F10801C1
:1036A0001844202280B205F01BFFBDF8062004F16B
:1036B0002801294492B205F013FF10B140BA80B23C
:1036C00001E04FF6FF7003B030BD00BF251E0020A3
:1036D000701F002028492DE9F04188460D78274EBB
:1036E0002835AB195C782648E400073402239C4255
:1036F0003DDBE9187218715C204F012932D002D3EA
:10370000632902D013E001332FE0037018461C4CEC
:1037100002F05CFFD8B998F80030227828331344BF
:103720003B445B78134402332370BDE8F08101F021
:10373000C001802905D0C02905D0402912D10370CD
:1037400005E0037006E03A7E0370FF2A02D10120F3
:10375000BDE8F08104200221EA1801F05FFE02209A
:10376000BDE8F081527802321344DBB2BFE7037048
:103770000020BDE8F08100BF251E0020701F002042
:103780002B1E0020F0B5C578124A0D44EDB2D5705D
:1037900083780F0A3B44DBB293704478BB42547089
:1037A0000678167005D2601CC0B2507008B9013698
:1037B0001670C9B28D420CDA0133DBB20549937041
:1037C0003BB94B780133DBB24B7013B90B78013343
:1037D0000B70F0BD641F002010B5084C0146206836
:1037E0001430FFF7CFFF064A236811781975517816
:1037F00059759178D2789975DA7510BD94240020A6
:10380000641F002008B501F069F901F0EFFE02F035
:10381000BBF900231149002221F813200133DBB248
:10382000082BF7D10E49302303FB02110132D2B22B
:1038300000230A2A81F82530F4D10A4A4FF4806126
:103840001180094A002102EB43120133DBB20A2B3B
:103850001182F6D1054A137008BD00BF80260020F2
:103860009824002062170020942600202C1E00209F
:103870002DE9F041134F3D7815B3DFF8508005F185
:103880002703B8F80040A34205DB00233B70A8F8EB
:103890000030BDE8F0810C4EA4F1280205F12801AA
:1038A000641BA4B206F128003144521B05F08CFBC6
:1038B000A8F80040283C23123371002374713B7038
:1038C000BDE8F081251E0020701F00205C1F002035
:1038D0002DE9F041034626480288013292B2B2F542
:1038E000FA4F28BF4FF4805200240A2C0AD0214DF1
:1038F00005EB44152E8A55BAADB2AE4204F101046F
:10390000F3D1EAE7DFF874E0028000220A2A18D037
:10391000184E55017419B4F81080571CFFB2B8F155
:10392000000F0CD18EF800200288618252BA2282E8
:1039300063B920461946102205F0AAFB11E03A4669
:10394000E4E78EF800200020BDE8F081274603F16F
:10395000100E3A4618685968083303C27345174673
:10396000F7D1054B35441B7920462B75BDE8F08116
:103970006217002094260020DC2700202C1E002047
:1039800030B50A490023082B0DD0094C5A1C34F8D5
:103990001350D2B2854204D100220B7024F81320B8
:1039A00030BD1346EFE70B7030BD00BF2C1E00206A
:1039B000802600202DE9F74FA44E04283468B24633
:1039C000A34F00F06182A349A34DA44A03280D60D0
:1039D0001560894615D194F8253003F00F03032BA9
:1039E00008D1A38B002B40F0A9869D4B08221A70AA
:1039F00000F096BD022B40F0A186002305F8073C9D
:103A0000C8E3022878D1974A00231380964A3B8066
:103A1000D3780133DBB2D37063B993780133DBB26F
:103A200093703BB953780133DBB2537013B91378F9
:103A30000133137094F8253003F0FD02052A0DD1EF
:103A400094F826300133DBB2782B84F8263040F02E
:103A50007586002384F8253000F070BE002B00F03E
:103A60006D86A28B7E48002A3DD094F82620511EF8
:103A700084F82610002A40F0618694F82720082A4E
:103A800004D0591E01290AD8052A08D1002384F838
:103A900025308023037002F053FA00F04FBD042A52
:103AA0009CBF0321914003F00F0394BFC9B23021A2
:103AB0000132013B84F8261084F82720072B00F2FE
:103AC0003D86DFE813F0630308000A00F4043B06B8
:103AD000F4043B06F404002259E30423037002F0CB
:103AE0002FFA00F05BBD03F00F03032B40F0268696
:103AF0000823037000F014BD052811D15B4B1B682F
:103B00001B8A002B00F01A860C3D1560554A0023D5
:103B1000138033603B80524B08220D601A70B1E174
:103B200015F83C3C3C3D03F0F003602B40F006866A
:103B30002B796A791B0239889818884200F3FE8530
:103B4000283213443B802B7AFF2B00F0F785484B3B
:103B5000AA1D484C484E1A60002222703270AA7981
:103B60009846B2B901233370FFF7B4FD012800F085
:103B7000E58503D3022800F0DD850AE0237803F110
:103B800028022A44C8F800205278083303EBC20305
:103B900023703A4800F03EFE002840F0B5803748D8
:103BA00000F0DEFE002840F0AF802A7E334BFF2A73
:103BB000A3F1180366D048F2FE00198B814261D050
:103BC000198981425ED079B9598969B9998959B9F8
:103BD000D98949B91B8A3BB9698A294B21B9998A84
:103BE00011B9DB8A002B4DD0298B254B79B9598B24
:103BF00069B9998B59B9D98B49B9198C39B9598C8B
:103C000029B9998C19B9DB8CB3F5807F3AD03B8800
:103C1000B3F5A06F04D9022000214FF4A06206E0A2
:103C2000EB79174C012B06D800210A46032001F03E
:103C3000F5FB00F07FBD02F017FD002840F07E8507
:103C4000E379013BE37100F075BD00BF94240020CF
:103C50005C1F002090240020AC1F0020601F00206B
:103C60008424002090260020271E00208C24002081
:103C700088240020251E0020261E0020881F0020EA
:103C8000701F002048F2FE032989994240F05685B2
:103C9000298B9A4B81B9598B71B9998B61B9D98BA1
:103CA00051B9198C41B9598C31B9998C21B9DB8C36
:103CB000B3F5807F00F04285FF2A00F03F859048F1
:103CC00000F088FD0246002840F0388501200221DE
:103CD000ADE721D93A2B6ED026D93B2B00F02E85AB
:103CE0003C2B64D133788749980735D558065ED484
:103CF00043F040030B70FFF7EDFC012800F01E8538
:103D00002DD3022800F01685D8F80020DFF820B265
:103D100013782B2BDDD12EE0062B00F00B81112B1D
:103D200066D0002B43D103E02C2B00F007853EE04A
:103D30003378D9073BD4734A43F001031370FFF77C
:103D4000C9FC012800F0FA84DBD2237803F12802B1
:103D50002A44CBF8002008E043F00203CAE72378A6
:103D600003F128022A44C8F800205278083303EBF4
:103D7000C2032370C8E7337803F0040000F0FF01AA
:103D8000A8B9604A43F004031370227802F12803B3
:103D90002B44D87810B104202A3248E7CBF8003001
:103DA0005B78083202EBC302574B1A70ACE7042071
:103DB0000121521B3BE705F0AFFB4FF6FF73984222
:103DC00040F0BC8423782833E85C01F013FF2378AB
:103DD0002833EA18E85C517801F0FEFA012804BFA4
:103DE00000233B803B88002B00F0A88400F0A2BC9D
:103DF000FFF73EFD3B88454E303B3B80EB8DC9F8DD
:103E0000006063B9B5F82A80B8F1000F00F096841D
:103E10003F4B404D2B60394BB3F828B00BE005F019
:103E200081FB4FF6FF73984240F08884EAE7238ACB
:103E30003BB920342C602C68374B9C42F7D300F000
:103E40007DBC9845F5D1638A0BB19B45F1D12368C0
:103E50002BB963681BB9A3680BB9E36833B12F486A
:103E60002146102205F008F80028E2D12C4A022150
:103E700011702C4A002316602B4ACAF80030C9F88A
:103E80000060138002F05CF8274B1A88002A00F0CB
:103E9000558402F13003194C9BB23B80283B191228
:103EA00063711C4B08321B6852BA2171197DA285BF
:103EB0000022E2851A8AE17122855A8A11216285DF
:103EC000A17104F118050FCB85E80F0004F108007B
:103ED000294600F0A5FD154B04F13C021A6005F0DF
:103EE00021FBC04380B208B1E08502E04FF6FF73CA
:103EF000E38502F0CFFC00F017BC00BF701F00206C
:103F0000881F0020261E0020251E0020A01F002044
:103F1000942600208C240020D4270020781F002025
:103F200084240020601F0020902600209024002080
:103F300088240020FFF79CFC05F0F1FA4FF6FF7390
:103F4000984240F0FB83B5F82AB0BBF1000F00F0B7
:103F5000F583BF4B1B8D002B00F0F083BD4E344624
:103F600096F82580B8F1000F0FD0328A5A450CD14F
:103F7000728A9A4209D1B84831461022019304F05E
:103F80007BFF019B002800F01B81B44A303696422B
:103F9000E6D195F8352002F03F02022A13D1B0494C
:103FA000B04E8846A1F800B00022082A0AD0AE49D7
:103FB00031F8121001328B45D2B2F6D100223270A4
:103FC000944657E0327095F83520A14B510700F127
:103FD000B583142283F835203C223A80502283F89E
:103FE000342093F8332093F8314093F82F0083F86E
:103FF0002F2093F8322093F82E109A4E83F82E201B
:1040000093F82D2083F82D4093F82C400130347024
:1040100093F83060C0B283F8321083F8312083F80F
:104020002C6083F8304083F8330060B90131C9B2A5
:1040300083F8321039B90132D2B283F8312012B983
:10404000621C83F830202B8D854A834C13806A8D47
:104050006B852A8504F1100594E80F0085E80F00B0
:104060002046294600F0DCFC49E3BEF1070F10D0E2
:104070000132D2B20A2A19D0302101FB024101F1EA
:10408000200090F805E0BEF1000FEED132700C4632
:1040900011E0BCF1000F04D080799CF82610884212
:1040A000E6D94FF0300C0CFB024CE1E7644632706D
:1040B000002C00F0438303226382674B84F82620A0
:1040C00084F82420042284F823200FCB84E80F00F6
:1040D000664B01201A784FF0000922765A7884F84E
:1040E000250062769A78DB78A276E37695F82F3011
:1040F000A083E37595F82E30CAF80040A37595F8B3
:104100002D3084F82290637595F82C3084F8279030
:10411000A4F810B02375FFF75FFB95F8343003F077
:10412000F002502A32D9524A1B09053B98009646A4
:104130004B461178834226DAEA1892F83C1011B304
:10414000012901D101331CE0022915D192F83DC0AB
:10415000BCF1040F10D18EF80010337092F83E10AD
:1041600092F83F3043EA0123402BA8F8003028BFE3
:104170004023E383238409E0EA1892F83D2012B13A
:104180001344DBB2D6E78EF8001033701022304BA8
:1041900083F835202E4B93F8352042F0020283F845
:1041A0003520022283F83C20042283F83D2000229F
:1041B00083F83E20402283F83F203A80602262E26A
:1041C00095F835302B4A03F004013446CAF80060F4
:1041D000107001F0FF0B21B1202386F82500137029
:1041E00000E21B4A08F00F0892F83420B8F1020FE1
:1041F0004FEA12124FEA82011A4A11703A88A2F16C
:104200002802A2EB010292B23A8003D103F03F01EF
:10421000122905E0B8F1010F03D103F03F01022993
:104220002AD00AB99A0727D0A98DB28A914204D11F
:10423000074AD18DF28A91421ED0980740F11C8224
:10424000B8F1010FA2D0B8F1020F40F01582A1E73A
:10425000701F002098240020781F0020782600205E
:10426000601700202C1E002080260020271E002022
:104270002D1E002084240020D90652D5B18B0029A0
:104280004FD006F11800FFF77DFAB44B95F83010C7
:104290001878B34A884244D192F8311093F801C09B
:1042A0008C453ED192F832E09978714539D192F837
:1042B0003320DB78934234D1F37696F8273030768A
:1042C00086F819C0B1761BBB96F8243096F82610F4
:1042D00096F82200591AA1EBD001C9B25FFA81FE0B
:1042E0001EF0800F96F82330084418BF4942A3EB14
:1042F000930318BF5FFA81FE03EB0E02C0B2D3B284
:1043000086F8233003EBD00386F8220086F82430A9
:10431000944B01221A7096F8243086F82630002338
:10432000B38396F82510DFF83C8201F00F03013BC0
:10433000072B00F20382DFE813F008002500950048
:1043400058017A0194019F014A0198F80020854B99
:10435000D2070FD5032286F82520388840221A700C
:104360000022B283002800F0D88042221A70FFF7A2
:1043700033FAD2E095F8353003F03F03022B40F0DA
:10438000DD8103E798F80030DB0760D595F835301C
:1043900003F03F03122B5AD1714B93F8343003F0E2
:1043A000F002502A38D9704A1B099646053B11780D
:1043B0006E489B009B452BDA05EB0B0292F83C10F4
:1043C00031B3012902D10BF1010B1EE0022916D1F4
:1043D00092F83DC0BCF1040F11D192F83F308EF835
:1043E000001092F83E10624A43EA0123402B1380EA
:1043F00028BF402380F800B0F38333840CE005EB42
:104400000B0292F83D201AB193445FFA8BFBD1E77F
:104410008EF8001080F800B0032386F8253095F858
:104420002C300120337595F82D30737595F82E30AA
:10443000B37595F82F30F375FFF7CEF9494A42234B
:1044400013704C4A0023B3833B80138068E0202321
:1044500088F8003001F074FDDAF80030002283F8AB
:104460002520B0E595F83530D80725D5CA0623D4E0
:10447000B38B002B40F062813888013080B2FFF7A7
:10448000ABF998F8003043F0100288F800203A8821
:104490001AB1344A43F01203137001F051FD0123A5
:1044A000B383082386F82530002386F827301122AD
:1044B0002B4B83F83520E2E098060DD595F83A208D
:1044C00095F83B3043EA0223D9F800201A44C9F892
:1044D00000203A88D31A3B80388848B1CA0607D4EE
:1044E00098F8003043F0020388F80030FFF774F9C1
:1044F00095F8362095F83730318C03EB02239BB2C8
:104500001B4A8B42138000D803B911801388F383B0
:1045100098F800309B0700F01181164B00221A809A
:1045200001F00EFD0F4B1A78124B02F0200000F044
:10453000FF0128B100221A8084F825201422B7E751
:1045400002F0100000F0FF05B0B119800123A38331
:10455000042384F8253084F82710A8E7641F00207E
:10456000701F0020842400202D1E00202C1E0020FF
:104570006017002090260020198861B1D60748BF37
:10458000A583A28B32B9E28B914288BF1A801B8827
:10459000A38300E01A80002384F827306D4B1B684A
:1045A000C9F800306C4B1B882BB1A38B1BB13C337B
:1045B0003B80182207E0694B1B789D0740F1BE80C5
:1045C0003C233B801022664B83F8352059E098F855
:1045D0000030DC0740F1B280002386F825305F4BC5
:1045E00010221A7001F0ACFCA8E0388808B1FFF77F
:1045F000F3F895F8353013F001030FD098F8003038
:10460000D80745BF072386F825300623002346BF79
:1046100086F82630B38386F8253016E098F8002017
:10462000D1071BD5052286F82520B38386E038887C
:1046300008B1FFF7D1F895F83530DA070ED5072322
:1046400086F82530002386F826300120FFF7C4F8CD
:10465000102388F8003001F073FC0DE03B885BB953
:104660006CE098F80030DB0768D5072386F8253022
:10467000002386F8263061E0102385F835303C238E
:104680003B80374B502283F83420237D344D85F80E
:104690003030637D05F1180685F83130A37D85F84B
:1046A0003230E37D85F83330237E85F82C30637E0D
:1046B00085F82D30A37E85F82E30E37E85F82F30E7
:1046C000238A2B85638A6B8594E80F0086E80F00A8
:1046D00005F10800314600F0A3F994F8253003F005
:1046E000100303F0FF022BB1002385F8373085F863
:1046F000363004E0402385F8362085F83730184CF2
:104700000623A371174B1B79E3713B88283B1A12D0
:1047100063710023227184F83B3084F83A30238798
:1047200004F0FDFEC04320870D4B60221A7000226A
:104730005A705A80094B00221A7007E00A4A002377
:1047400013700A4A3B801370044A137003B0BDE82B
:10475000F08F00BF601F00209026002084240020DE
:10476000701F0020DC270020251E0020261E0020B0
:104770002DE9F3410446154D00910E4690461F4623
:104780000195234612480321202204F0D8FE012877
:104790002B4616D12A6804F11001107020462A68B1
:1047A000023250F8044B884242F8044BF9D11868A1
:1047B000089B86744361099B80F8138007778361A7
:1047C00000E0002002B0BDE8F08100BFF809002041
:1047D000D828002070B506460B4D0C4B2B602C687A
:1047E0000B4B9C420BD2237833B1A27CA01C3146E8
:1047F000D20804F041FB20B120342C60EFE7002008
:1048000070BD012070BD00BFF8090020D82800202D
:104810003829002013B5084C8022034600920194E9
:1048200006480321202204F08AFE08B9206800E02F
:10483000002002B010BD00BFFC090020F4270020BA
:1048400010B50C4A0C4B136013680C498B420DD207
:10485000197849B1411C02D0997C814204D148F2B7
:10486000FE015C888C4202D02033ECE7002318461E
:1048700010BD00BFFC090020F427002054280020B0
:1048800037B504460F4D80230093019523460E480B
:104890000521122204F053FE01282B460ED12A686E
:1048A00004F11001107020462A68023250F8044BBF
:1048B000884242F8044BF9D1186800E0002003B0A8
:1048C00030BD00BFF409002078280020F7B5054668
:1048D000204C802300930E46174601941E48032166
:1048E00020222B4604F02BFE012830D12A462368D3
:1048F00005F1100118702368023352F8040B8A4244
:1049000043F8040BF9D12068C77416B90123037565
:1049100005E0002303753146183005F070FC23686C
:104920000E480121997402234370FF220023027074
:1049300043808380C38003818372C17202736B7B67
:104940004373EB89C381FFF79BFF206800E00020E1
:1049500003B0F0BDFC090020F427002064170020FC
:1049600013B5084C802203460092019406480521A5
:10497000122204F0E4FD08B9206800E0002002B033
:1049800010BD00BFF40900207828002038B5054686
:10499000C8B10D48022200244270FF230122C272D6
:1049A00044808480C4800481847203730370EB7B31
:1049B00043732B8AC381FFF7D3FF044A106008B109
:1049C00004F0E1FD2C7038BD64170020F4090020CC
:1049D00010B50F4B0F4C236020680F4B98420ED23E
:1049E00003784BB1037D3BB9183003F07FFE18B15B
:1049F000084B1868FFF7CAFF23682033EBE700F085
:104A0000E1FB00F067F9BDE81040044804F0B8BCD1
:104A1000F4270020FC090020542800203829002019
:104A20002DE9F84348F2FE030A8805469A42884673
:104A300021D00B78FF2B1ED01B4B0024A1461F4614
:104A40001A4A1A603E681A4A964218D233787BB1E5
:104A5000B37C012B0CD148F2FE0372889A4207D036
:104A60004046B11C04F09CFD484524BF34468146B5
:104A700020363E60E6E70120FFF7E2FE04464CB92F
:104A80002C806C80AC80EC802C816C81AC81EC81C2
:104A9000BDE8F883A31C123453F8042BA34245F855
:104AA000042BF9D1BDE8F883FC090020F42700208D
:104AB0005428002010B5FDF733FE0446FDF730FE04
:104AC000054B24029A68A4B22044B0FBF2F302FB27
:104AD000130000EB520010BDDC27002073B52F4CF3
:104AE00000F07CF800F0A0F9002160222C4804F0CE
:104AF000CFFA00212046F82204F0CAFA294B2022DE
:104B00001A70294B18221A704FF4A0632360274BA8
:104B100040262671A360FFF7CDFF42F21073236198
:104B200048F2FE03314640F2FF260025E06025757D
:104B30001F4C2A46238065802B46A580E5802046B1
:104B400000950195FFF714FE20461A4904F01FFD59
:104B5000294601222046FFF7B9FE4FF48073204614
:104B6000E38126806580A580E58025816581A5811A
:104B7000FFF786FE4FF40073204626806580A580EF
:104B8000E58025816581A581E381FFF779FE0A48EB
:104B90000C2102B0BDE8704004F0E9BBDC27002026
:104BA000D8280020D5280020D4280020C0270900BC
:104BB00064170020681F00203829002010B5044623
:104BC00040B101F0B9FA044B2146BDE81040186825
:104BD00002F096BD10BD00BFCC000020024B03497F
:104BE000186802F0D1BC00BFCC000020BD4B2000F3
:104BF0002DE9F8439846154B05461868914602F092
:104C0000F1FC0446F0B1074605F110033E46286862
:104C10006968083503C69D423746F7D104F1100094
:104C2000002184F8219084F8228005F0E8FA04F14C
:104C30001800002105F0E3FA002384F82030204614
:104C400001F07AFA2046BDE8F88300BFCC000020CE
:104C5000024B0146186805F042BA00BFCC000020A4
:104C600070B50C4D0646286802F0A2FC044666B9F1
:104C7000002070BD20463146102204F0FDF838B106
:104C80002146286805F0FBF90446002CF2D1EFE735
:104C9000204670BDCC000020024B0146186805F08C
:104CA00005BA00BFCC00002070B5054610200C46A8
:104CB00002F0A4FE0649064605F0ACF930B93046CC
:104CC00029462246BDE8704001F0FEB970BD00BF24
:104CD00080A8200070B53F4D286802F069FC0446AA
:104CE000002876D094F82230042B6DD8DFE803F04A
:104CF0001D036C33410004F11006304603F0F6FC4E
:104D0000002861D0204600F0FDF950B1032384F85B
:104D100022303046052105F072FA002384F8203055
:104D200052E0022384F822304EE094F82030022B27
:104D30002BD804F11806304603F0D8FC002843D0E5
:104D4000254B188800283FD194F8203001460133C4
:104D500084F820302CE004F1100003F0C7FC98B375
:104D60000423002184F8223084F8201004F1180074
:104D700028E094F82030022B0BD9204600F0C2F92D
:104D800018B1037F0BB900F09BF92046FFF716FF1F
:104D90001AE004F11806304603F0A8FCA0B10E4B4F
:104DA000188888B9214694F82030013384F82030DF
:104DB000224600F037FE094B304619694FF47A73EA
:104DC000B1FBF3F105F01BFA2868214605F057F90D
:104DD00085E770BDCC0000205C1F0020DC27002090
:104DE0002DE9F04105460D480F46904604F00DFBB5
:104DF000044688B1012D04D8094804F03CFB034661
:104E000001E0084B1B682846666839464246B047B1
:104E1000204604F037FBEBE7BDE8F081CC11002021
:104E2000640D0020600D002008B50A4805F0EEF979
:104E3000094804F0E7FA0949094802F0A5FB0948C6
:104E400005F0E4F9084804F0DDFABDE80840074839
:104E500004F0D8BAFC000020080E0020F9952000CC
:104E6000EC000020E0000020640D0020CC110020A8
:104E700008B5034638B15968034805F030F9BDE874
:104E8000084004F0AABB08BDEC000020014804F073
:104E9000BCBA00BF080E00202DE9F0418046FFF7A4
:104EA000F5FF0026044637469CB194F82450B542DD
:104EB0000AD3404604F10801EA0803F0DDFF18B9FF
:104EC000802D08D02E462746204604F091FB04464C
:104ED000EAE73C4667B1084804F097FA844207D0F5
:104EE0000548214604F09BFA0348214604F0BAFA2B
:104EF0002046BDE8F08100BF080E002038B504460A
:104F000000283DD04368002B3AD01E48214604F0CB
:104F100086FA6368586804F078FA054630B1436849
:104F2000A34207D0284604F0ADFAF6E704F10800E2
:104F300001F044F863682946586804F070FA636821
:104F4000586804F062FA20B963680F48596802F0A3
:104F5000D7FB21460D4805F07DF929460C4805F0A0
:104F600079F90C4A20461368013B1360FFF780FF74
:104F700004F108010246BDE838400320FFF730BFC6
:104F800038BD00BF080E0020EC000020FC0000200F
:104F900008010020600D002010B5044678B140687B
:104FA00068B104F032FA20B14068FFF7A7FF6068EB
:104FB000F7E72146BDE81040014802F0A1BB10BD53
:104FC000EC0000202DE9F047074610468946904640
:104FD00004F005FB824610B90020BDE8F087384692
:104FE000FFF75AFF044660B1FFF742FF014628B1C0
:104FF0004046102203F040FF002854D02046FFF71F
:105000007DFF2A4E3368142B04D1294804F0FFF9A0
:10501000FFF774FF2748514605F048F8054658B990
:105020002448514602F0DEFA05460028D4D0002379
:105030006860036004F0E6F91F4805F0F7F80446DD
:105040000028C9D01A48214604F00CFA1B4805F084
:10505000EDF8824620B92146174805F0FBF8BBE77A
:1050600044606868514604F0EEF9336865600133C6
:1050700033603B4604F1080507F110062A4618681C
:105080005968083303C2B3421546F7D100210C22F8
:1050900084F8249004F1180003F0FAFF0220394646
:1050A0004246FFF79DFE2046BDE8F087600D0020D8
:1050B000080E0020EC000020FC0000200801002069
:1050C00038B505460D4804F0A0F90446A0B1AC423D
:1050D0000ED12146094804F0A2F92146084805F0FE
:1050E000B9F8211D01200A46BDE83840FFF778BE17
:1050F000204604F0C7F9E8E738BD00BF640D002082
:10510000E000002038B50546084804F07EF9044662
:1051100048B1201D2946102203F0AEFE18B12046EA
:1051200004F0B0F9F3E7204638BD00BF640D00205D
:10513000F8B505460F46FFF7E5FF044640B91348AA
:1051400005F074F80446F0B11148214604F08AF9DC
:105150002B46261D05F1100E324618685968083393
:1051600003C273451646F7D137B104F1140039462E
:1051700005F045F8002300E00123237700202946AD
:105180002A46FFF72DFE2046F8BD00BFE0000020B4
:10519000640D002038B50A4804F037F904460025AC
:1051A00064B1251D2846FFF75BFD10B190F8223051
:1051B00023B9204604F066F90446F1E7284638BDD5
:1051C000640D002010B50A4804F01FF9044670B1C0
:1051D000237F43B904F1140003F088FA18B1204684
:1051E000FFF76EFFEFE7204604F04CF9EEE710BD45
:1051F000640D00202DE9F043334C344D85B004F1AB
:1052000008030FCB8DE80F002B786E46E779002B53
:105210003DD001F00BFBDFF8BC90804629783A23A3
:1052200000B3814284F8283013D0B9F80020521A14
:10523000024492B2A9F80020283A131262712C316C
:105240002C30C8EB020220442144043A237103F0BD
:10525000BBFEB9F8003085F80080C8EB0308A9F858
:10526000008014E0B9F80020A371521A92B2A2F1A2
:10527000280318122C31A9F800202071214404F1D0
:105280002C002C3A637103F09FFE85F800801048D3
:1052900004F0BBF8804690B1D8F804C0BCF1000F10
:1052A00009D00C4B2A781B8838322C3B30463946C3
:1052B00022449BB2E047404604F0E4F8EAE7054B9D
:1052C000188005B0BDE8F083701F0020251E002067
:1052D000D01100205C1F0020F8B5384B384C1B79EA
:1052E00004F11806E371237E04F10805FF2B08D1B1
:1052F00095E80F0086E80F0028463146FFF790FB3F
:105300001BE02F46B6462F4A3B4603CB7345106041
:1053100051601F4602F10802F6D196E80F0085E8B9
:105320000F00284B284D03F110062A4618685968CB
:10533000083303C2B3421546F7D1244D2B787BB313
:1053400001F074FA2B7806463A22B0B183421C4F22
:1053500084F8282023D01E490A88D21A024492B227
:105360000A80283A111239717A7103F12C012C301C
:10537000921B38443944043A0FE01549A2710A8857
:10538000D21A92B20A80A2F128010812207161712A
:10539000104803F12C0121442C3A03F015FE2E7025
:1053A0002B7881222833E518E25400236B706B8040
:1053B00004F0B2F8C0436880F8BD00BFDC270020CD
:1053C000701F002074170020881F0020251E002059
:1053D0005C1F00209C1F002038B504460B480D467A
:1053E00004F013F878B10379A34209D14379AB42B1
:1053F00004D183683BB19847002038BDFF2BF8D01B
:1054000004F040F8EEE7012038BD00BFD4110020C1
:105410000146014804F017B8D41100202DE9F74FD8
:10542000484E8146337888469246474C3BB12833F4
:10543000E35C3A2B0AD1454B00221A807FE0A37926
:105440003A2B03D194F92830002BF4DA01F0EEF96D
:105450003F4D404A0746AC469346307005F1100E6A
:105460002B4603CB7345106051601D4602F10802C4
:10547000F6D1364D04EB47002B88303030339BB2E9
:10548000B3F5A06F88BF4FF4A0632B802A882E4B02
:10549000D21B1946303ACDF804C0009303F094FDB6
:1054A0009DE80810602222700022627062803A2219
:1054B00017B183F8282000E09A71274A224B12790D
:1054C000E271228972B95A8962B99A8952B9DA8924
:1054D00042B91A8A32B95A8A22B99A8A12B9DB8A2F
:1054E000002BA8D01D4B0FCB8CE80F009BF8003091
:1054F000FF2B05D1B9F1040F9DD1B8F1020F9AD15C
:1055000014491648FFF78CFA3778504607F12803FC
:10551000E21804F8039082F8018004F006F82B8862
:105520002C37283BE0511A126371337822712833EB
:105530001C440023638003F0EFFFC043608003B08E
:10554000BDE8F08F251E0020701F00205C1F00208A
:10555000881F002074170020DC270020781F0020FF
:105560002DE9F0411E460F461B4905460C466023B7
:105570000B7000234B704B803A238B71174B904676
:105580001B7900F1100ECB71331D1A120A714B7189
:1055900001F11802134628686968083503C3754588
:1055A0001A46F7D10E482C3600F11001FFF738FAF1
:1055B0000C4B1B782833E518E75400236B8085F8E3
:1055C000018003F0A9FFC043074B68801E80BDE83F
:1055D000F04100F035BB00BF701F0020DC27002029
:1055E000781F0020251E00205C1F002008B50448FD
:1055F000FFF70EFFBDE808400248FFF709BF00BFF4
:1056000014010020200100202DE9F74F664C674A65
:10561000E1791378FF2903F12C0C0CEB04091CF839
:1056200004700192DFF8A48140F0B580234493F820
:105630002930002B40F0AF8099F80430FF2B00F0A8
:10564000AA8007F0400303F0FF061BB1237EFF2B67
:1056500000F0A1805649574D14230022B8F800B03D
:105660000B702A600CEB030EDE4511DA04EB0E0A18
:105670009AF8010010B92A600B708CE014F80EE063
:1056800003EBC003DBB2BEF1020F08BF5246E9E7ED
:1056900009F104000B702A60FFF7BCF8464B186054
:1056A000002878D1019B187820443030FFF7D8FAD1
:1056B000424C2060FFF7CCFA25688346A146002DB6
:1056C00069D03C4B1C6834B1A01C5946082203F039
:1056D000D3FBC0B200E0204695F8223027F07F0AC5
:1056E0005FFA8AFAEBB9002C55D054F8022FCBF8A8
:1056F00000206268CBF804207EB185F82030304B62
:105700000122D9684FF47A7385F8222005F1100040
:10571000B1FBF3F104F073FD39E0022385F8223088
:1057200035E0BA0606D428B1012B34D1022385F81E
:10573000223030E0ACB3224652F8023FCBF80030C2
:105740005368CBF804306EB1012385F822301C4B2E
:1057500005F11000D9684FF47A73B1FBF3F104F04E
:105760004EFD04E01CB110B1022385F82230D9F8B7
:10577000003093F8213053B1BAF1000F07D111482E
:10578000FFF7C0FC104A106008B1FFF799FCD9F888
:10579000003083F821A00023A8F8003003B0BDE852
:1057A000F08F002EE3D0CFE7701F0020251E0020D1
:1057B000581E0020E0110020E4110020DC11002020
:1057C000DC270020781F0020D81100205C1F00205B
:1057D0002DE9F84F874CDFF84482E379FF2B40F046
:1057E0000381854E3378E21892F83020FF2A00F0CA
:1057F000FB80234493F82930002B40F0F5807F4F45
:105800007F4D3B6014232B7030782A782C30B8F809
:10581000003002449A4254DAA1184878754B0028A7
:1058200000F0E280A25C012A41D11A8939607AB97C
:105830005A896AB99A895AB9DA894AB91A8A3AB92F
:105840005A8A2AB99B8A1BB9E38A002B00F0CC80C4
:105850006C48FFF705FADFF8C8A10246CAF8000055
:1058600030B93968022302316648FFF7C1F91EE0FA
:10587000FFF7EEF983463B68594603F102094846B3
:10588000082203F0F9FA50B1D9F80030CBF8003013
:10589000D9F80430CBF80430DAF8003004E0DAF854
:1058A000003093F8222012B9022283F822203378A4
:1058B0002A782C33134423445B7802EBC3022A700A
:1058C000A2E720440430FEF7A5FF4F4B494D186076
:1058D0009946002800F088802B8973B96B8963B9D9
:1058E000AB8953B9EB8943B92B8A33B96B8A23B996
:1058F000AB8A13B9EB8A002B76D0424D2846FEF7CF
:1059000089FF2F4600286FD140F2FF23228BA5F19B
:10591000080E9A4205F1100C19D16B8ABBB9AB8AFB
:10592000ABB9EB8A9BB92B8B8BB96B8BB3F5807FB3
:105930000DD12B7FFF2B0AD195E80F008CE80F00CB
:105940003378734430330FCB85E80F0011E02F4DCF
:105950002846FEF75FFFD9F80030834244D197E82C
:105960000F0085E80F003378234430330FCB87E8EE
:105970000F0060222270282262713A22A271FF2257
:10598000E2718822002384F82820D9F8002033709F
:1059900063706380237184F829301D4EE02384F8FE
:1059A0002C30931C1232354618685968083303C5E9
:1059B00093422E46F7D1174A022384F8403084F8E8
:1059C000413013681448C4F84230536800214360E2
:1059D0000622083003F05CFB0023638503F09CFD86
:1059E000C0435023608500E00023A8F80030BDE8E4
:1059F000F88F00BF701F0020251E0020E01100203E
:105A0000581E0020781F0020E4110020881F00206D
:105A1000A01F0020681F0020B21F00205C1F002074
:105A2000DC1100202DE9F041524C534F00233B7014
:105A3000637063803A238046A3716020FF23207047
:105A4000E37199B96183A183E183218484F82210F1
:105A5000022001212376607684F8231084F8243014
:105A6000537B84F82530D389E3840CE00B4604F1A2
:105A7000180601F1100E354618685968083303C539
:105A800073452E46F7D1872384F82830002384F805
:105A90002930E3621346394E02F1100E354618687C
:105AA0005968083303C573452E46F7D10026267181
:105AB0001046304DFEF7AEFE002842D1B8F1000F7F
:105AC0000CD04346083508F110062A461868596874
:105AD000083303C2B3421546F7D105E005F10800CB
