:020000040020DA
:10000000F81500208D022000E73D2000E53D20008E
:10001000E53D2000E53D2000E53D2000000000001A
:10002000000000000000000000000000E53D20008E
:10003000E53D200000000000E53D20008B3E200053
:10004000AD3E2000B33E2000B93E2000BF3E200060
:1000500000000000913E2000973E2000E53D20007A
:10006000E53D20000000000000000000000000004E
:100070000000000000000000E53D2000000000003E
:100080000000000000000000E53D2000E53D2000EC
:10009000E53D2000E53D2000E53D2000E53D200058
:1000A000E53D2000E53D2000E53D2000E53D200048
:1000B000E53D2000E53D2000E53D2000E53D200038
:1000C000E53D2000E53D2000E53D2000E53D200028
:1000D000E53D2000000000000000000000000000DE
:1000E0000000000000000000000000000000000010
:1000F00000000000000000000D1720001D17200068
:1001000000000000000000000000000000000000EF
:1001100000000000000000000000000000000000DF
:1001200000000000000000000000000000000000CF
:1001300000000000000000000000000000000000BF
:1001400000000000000000000000000000000000AF
:10015000000000000000000000000000000000009F
:10016000000000000000000000000000000000008F
:10017000000000000000000000000000000000007F
:10018000000000000000000000000000000000006F
:10019000000000000000000000000000000000005F
:1001A000000000000000000000000000000000004F
:1001B000000000000000000000000000000000003F
:1001C000000000000000000000000000000000002F
:1001D000000000000000000000000000000000001F
:1001E000000000000000000000000000000000000F
:1001F00000000000000000000000000000000000FF
:1002000000000000000000000000000000000000EE
:1002100000000000000000000000000000000000DE
:1002200000000000000000000000000000000000CE
:1002300000000000000000000000000000000000BE
:1002400000000000000000000000000000000000AE
:10025000000000000000000000000000000000009E
:10026000000000000000000000000000000000008E
:10027000E53D20000116200019162000750F200012
:10028000E53D2000890A2000E53D200008B5094B26
:10029000FF221A600848094A4824E3690849121AEB
:1002A00098470848084AA3690021121A984700F0A5
:1002B00001F9FEE7B4200D404000002009010020B4
:1002C000244B200010010020F70D0020832973B576
:1002D00006460D46144602D1404803F018FF338805
:1002E0002BB1562B12D000233380032073E03C4AFD
:1002F0003A48138081213B4A02F00EFA3A488021A5
:1003000003F05BFE56233380012064E0882D32D158
:10031000334C022000F0A6F82188344801F0E8FAB6
:10032000334B01205B6898470146324801F0E0FA00
:10033000314B01205B6898470146304801F0D8FAFC
:100340002F4B00205B68984701462E4801F0D0FAF9
:100350008021254803F031FE00F054FB002300F516
:10036000804100932848294B012202F0E3F82388BA
:1003700001332380C6E7264B1B78AB4223D1254BA4
:100380009C4207D10221164802F03CFB134802F0C0
:10039000D5F9B7E7204B9C4202D0204B9C4201D1BB
:1003A000012015E01E4B9C4207D103F07BFD0F207E
:1003B00000F058F800F0C2FCA4E71A4B9C42A1D10F
:1003C00000F01CFD9EE7184B1B78AB429AD1082029
:1003D00000F05AF896E702B070BD00BF3C01002063
:1003E00044060020084720002C0100202E49200050
:1003F000804820006A49200070482000774920008A
:10040000604720008C49200020010020ED3D2000A5
:10041000EC0D00201047200030472000404720000E
:100420005047200020472000F60D002010B50A207C
:1004300000F02AF802F084FA044602F06DFA214630
:10044000BDE810400288014801F052BAAB492000D3
:1004500008B500F021F8024B00221A7008BD00BF59
:100460007C0C0020024A13781843107000F01CB86E
:100470007C0C0020034A137823EA0000107000F07F
:1004800013B800BF7C0C0020024A1378584010704B
:1004900000F00AB87C0C0020024A136843F00F03F6
:1004A0001360704700B40D40014B1860704700BFE7
:1004B0003CB00D4073B500F04BFC00F0F5FC00F0D3
:1004C00089FC00F049FA01F0C7F903F085FD00F05E
:1004D000E3FCFFF7BDFF022003F08BFC01F060FF9F
:1004E00000F018FC00F0D0F9002000F027FB0120FC
:1004F00000F024FB3B49002000F0F6FB02F0AEF8D0
:1005000003F0CCFC042003F074FC374803F0FBFC40
:10051000364803F0F8FC364801F0EAF9354B364C22
:10052000186803F0F0FC354801F0E2F9344B354E21
:10053000186803F0E8FC344801F0DAF9334B186826
:1005400003F0E1FC002002F0ABF801F079F830484C
:10055000002101F0CBFF01F0A9FD0821684601F060
:100560008DF99DF807309DF806502A4843EA052585
:10057000BDF80630238001F0BBF92178264801F050
:10058000B7F96178254801F0B3F9F46A4AF6CD313C
:100590000220A04729460320A04719210120A04797
:1005A000736B082269460920984702F03FF900F072
:1005B0009DFC00211A4801F099FF03F0FDFC194849
:1005C00003F0F0FC00F0ACFB082003F012FC00F09C
:1005D000ADFB01F0FDFE10F0FF0FF8D101F0D4F8F3
:1005E000F5E700BF19262000DC492000E84920007B
:1005F000004A200098482000AE0D0020074A200045
:10060000A4482000C84720000E4A2000C04820000F
:10061000AC000020154A2000334A2000394A20004F
:10062000500000200047200070B505880446772D53
:1006300030D07E2D3FD0002D4DD101F0A9FE294BA9
:100640001870294B1D601D462B68284A264E52F80B
:1006500023204AB126480021C1549368802098473E
:10066000336801333360EFE7224A1370772320E0C9
:100670001F4AD256002A12DB1B4A1368013313604B
:10068000194B1C4A1B6812789342F1DB1A4B1B680A
:10069000002BEBD0184A00231360134AEFE7114AEE
:1006A00000201178114A52F8232001F0F3FE30B9EE
:1006B0007E23238013E00B4B1B788B420FD10A4B18
:1006C0000B491A688B5C03F07F038B540A4A13684A
:1006D00001331360D0E700230380032070BD0120A5
:1006E00070BD00BFEC0D0020540100206000002010
:1006F000ED0D00207D0C002058010020094B1A78D8
:100700000023934204DA084951F82310814207D1AB
:1007100006490748CA5C62F07F02CA5401F0FEBE77
:100720000133EEE77D0C002060000020ED0D00207D
:100730005000002008B50948082103F084FB03217C
:100740000422002000F0BEFB002000F01FFB044844
:100750000021032200F058FB012008BD00900D404D
:100760002508200008B50948102103F06CFB04217E
:100770000A46022000F0A6FB022000F007FB044816
:100780000221042200F040FB012008BD00B00D4012
:100790002508200008B50948202103F054FB052155
:1007A0000422022000F08EFB022000F0EFFA044841
:1007B0000221052200F028FB012008BD00B00D40F9
:1007C0002508200008B50948402103F03CFB06211C
:1007D0000422022000F076FB022000F0D7FA044841
:1007E0000221062200F010FB012008BD00B00D40E0
:1007F0002508200008B50948802103F024FB0721C3
:100800000422022000F05EFB022000F0BFFA044840
:100810000221072200F0F8FA012008BD00B00D40C7
:100820002508200038B5054611480C4603F0DDFBCD
:10083000E8B10F48102103F0D1FB1DB9032C16D1EC
:100840000C4810E0022D12D1042C01D10A480AE014
:10085000052C01D1094806E0062C01D1084802E028
:10086000072C04D10748BDE83840FFF747BF38BD23
:100870005C01002010472000304720004047200046
:1008800020472000504720000148002103F0A6BB6C
:100890005C01002010B5074CFF2323604FF4FA6081
:1008A00000F08CF800213022062000F027FB002306
:1008B000236010BD00920D40802870B51ED1104EEF
:1008C000104D3368002423F0800333602B682046EA
:1008D00043F080032B600C4B07211C60224600F084
:1008E000F1FA3368204623F0400333602B68062179
:1008F00023F040032B60012200F0E4FA002070BDD9
:1009000020940D4000940D4000920D40F8B500F089
:1009100079F80F4B0024D3E900673A46B04238BF5C
:100920007A1C15460443C3E90045DFF828E0DEE9F8
:100930000001821B61EB070312196B41CEE9002312
:1009400001F090FC18B1BDE8F84001F01BBCF8BD07
:1009500010010020180100200F4B104A1A6053F8B4
:10096000042C42F0050243F8042C53F8042C42F006
:10097000020243F8042C0A4A136843F0010313608F
:10098000084B00221A60042243F80C2C012243F881
:10099000082C0F22DA62704714E000E047E80100FB
:1009A00008200D400C000340034BD3E90023100A3C
:1009B00040EA0360704700BF10010020054B18603B
:1009C0001C3B1A6842F001021A601A68D207FCD474
:1009D000704700BF2800034010B5064C236823F081
:1009E00001032360FFF792FF236843F001032360B4
:1009F00010BD00BF10E000E0014B1868704700BF59
:100A000064010020074B084A196804331B68126808
:100A1000120442EA0323054A0B43106843EA0060CC
:100A2000704700BF40500D4048500D404C500D40A5
:100A300010B50446114B1B68DB07FBD503F032FAF7
:100A4000FFF7E0FF231A062BD8BFC41D0C4B220E64
:100A50001A60C4F3074243F8042CC4F3072243F896
:100A6000082CE2B243F80C2C03F018FA054B912045
:100A70001C60BDE8104000F089B900BF50500D4027
:100A80004C500D406401002008B500F063FE064B99
:100A9000002291201A6000F091F9912000F082F973
:100AA000BDE8084001F058BD640100200023084A59
:100AB0001068084A9958084205D01A44D2689069CB
:100AC00010F0800003D02C33582BF0D10120704758
:100AD00028200D4070472000164A38B52C2303FB10
:100AE00000234FF6BF72DC680546236C62649BB23C
:100AF00013F050020DD0A369DB0609D40E4B53F856
:100B000025301BB12068C0B29847F4E72368F2E7AC
:100B100038BD13F4D06F0BD04FF440732363FF2321
:100B20006360E36AE262E362236B43F001032363E1
:100B300038BD00BF70472000680100202DE9F04F4C
:100B4000012885B0064600F2BF802C244443604B48
:100B50001D1995F920A005F12007BAF1000F99465B
:100B6000C0F2B28095F92230002BC0F2AD80594816
:100B700000F062FE584A59F804301168EC680B43E3
:100B8000136051686B6895F921B00B43536091680D
:100B9000AB6895F822800B4393600023C4F8C83FEC
:100BA0002B690BEBCA021A6095F823305FFA88FCB8
:100BB00001939DF80430604619462A7DCDF80CC09B
:100BC000029300F089F9029BDDF80CC019466046DB
:100BD000082200F077F94FFA88F840494FEA0838C0
:100BE0009DF9042058F80100012303FA02F20243A0
:100BF00048F801204FEA0A3A5AF8010003FA0BF2CA
:100C000002434AF801205022A263A26B95F8240007
:100C100042F4D062A263022262634FF44072226304
:100C2000AA696262EA69A2627022E26242B2002AA2
:100C30000C4614DB95F92510294D41EAC2012960C3
:100C40007979120315594FB2BB402B43135100223F
:100C500000F038F9234A136843F4004313602C234F
:100C600003FB069393F8265020336FB2002F1CDB52
:100C700093F807A0EDB25FFA8AF8284641460122B0
:100C80003F0300F029F94FFA8AFA3A59012303FA8F
:100C90000AF313433B5108222846414600F012F95B
:100CA000104A136843F4804313602C2303FB069619
:100CB000F26896F82800136B43F00103136305B044
:100CC000BDE8F04F00F062B805B0BDE8F08F00BF9E
:100CD00070472000AD0A200028200D4020940D40D0
:100CE00004410D4030D0004001289CBF014B43F827
:100CF0002010704768010020012808D8044B2C22DE
:100D000002FB0030C3689A699206FCD419607047F0
:100D100070472000014B00221A60704700500D40C0
:100D2000014B08221A60704700500D40024BA02270
:100D30001A6050221A60704700500D4008B503F049
:100D4000B1F8024B0B221A60FEE700BF00500D40C5
:100D5000084A094B1A60094B80321A60084B8032EE
:100D60001A60084B80321A60074B4FF400121A6069
:100D7000704700BF00E100E07C010020700100200E
:100D8000740100207801002008ED00E0044B4109C7
:100D90001A6800F01F000123834042F82130704799
:100DA0007C010020044B41091A6800F01F00012358
:100DB000834042F82130704770010020044B410904
:100DC0001A6800F01F000123834042F82130704769
:100DD00078010020054A064B1A60064B1A68064B3C
:100DE0001340B3F1807FF8D1704700BF01010201C9
:100DF00000200D4004200D4000000101014B08229D
:100E00001A60704774200D40024B02EBC10243F898
:100E10002200704780010020F8B507460E46094DB4
:100E2000002405EB411547FA04F3DB07E1B204D5D2
:100E300055F824300BB1304698470134082CF2D1D4
:100E4000F8BD00BF800100202DE9F04780464FEA41
:100E50000837DFF8409007F1804505F5592500F087
:100E600079FCD5F8186457F809404FEAC80A24FA03
:100E70000AF446EA0400E4B2C0B24146F6B204FA0B
:100E80000AF4FFF7C9FFC5F81C6447F80940BDE83C
:100E9000F08700BF18970D4002480021802202F021
:100EA00053BF00BF80010020034A044B1A60044B6B
:100EB000803A1A60704700BF80400D400402002055
:100EC00000020020034B01EBC0011B6843F8212006
:100ED000704700BF04020020034B01EBC0011B68F8
:100EE00043F82120704700BF00020020024A136827
:100EF00043F030031360704700700D400E2870B54A
:100F00000BD1164B164E1C6844F002051D60356867
:100F100025F03F0343F001033360124E336823F0A2
:100F2000FF031A431143014331600F4B1B681B063B
:100F3000FBD50E4B0E4A1B6812680E2803F0FC030B
:100F400043EA022308BF064A9BB204BF1560034A66
:100F50009BB208BF146018B270BD00BF34000144DA
:100F6000F486084008700D4000700D400C700D4074
:100F700010700D4010B58F20064CFFF71FFF8F201B
:100F8000FFF710FF206818B101F0C8FA00232360B2
:100F900010BD00BF08020020084B93F90020002A72
:100FA00009DB074AED2111601160E32111601A7815
:100FB00062F07F021A700120704700BF7E0C002093
:100FC00038880840094B1B689B07FBD4084BED226F
:100FD0001A601A60074A12680AB1EF221A60064ABC
:100FE0000120137803F07F03137070474C8608408C
:100FF000388808402C8608407E0C002038B5A0F1C7
:101000000B04E3B20F2B054613D80B4B1B6813F0F0
:101010003F0302D0FFF7D6FF012304EB8404074A05
:101020000B3414600BB1FFF7B7FF054BE8B21D702E
:1010300000E0FF2040B238BD488608403C860840AA
:101040000801002010B50B4B1B68990603D1FFF770
:10105000A3FF012300E00023074A1268D207FBD553
:10106000064A1468C4F300140BB1FFF7ABFF204627
:1010700010BD00BF48860840648608404C86084082
:10108000044B186800F02200A0F120035842584198
:10109000704700BF4C860840024B186800F04000C3
:1010A000704700BF4C86084038B50C4600296CD00C
:1010B0000D286CD8DFE800F0070D181A216B3142BB
:1010C000476B5E606267334B1B68003318BF0123B8
:1010D00056E0314B05221B6803F07F030B3B93FB6B
:1010E000F2F30B33DBB24BE02C4B00E02C4B1A68D5
:1010F000043B1B6843EA022342E02A4B00200860BD
:101100001A68243302F001020A601B6813F02003FE
:1011100037D042F002020A6038BD234B1A68002320
:10112000D2B2224901EBC3000079904202D851F8B3
:10113000333025E001330E2BF3D11FE01C4B1B682D
:101140005BB2493B1CE01B4B1B68990603D1FFF7C0
:1011500023FF012300E00023174A1268D207FBD5C2
:10116000164A1568493DEDB20BB1FFF72BFF6DB282
:10117000256006E00B2303E01A2301E06FF017035C
:101180002360002038BD0723FAE7022038BD012084
:1011900038BD00BF2C8608403C860840CC850840FE
:1011A000D48508400086084040860840004820005A
:1011B0005886084048860840648608406086084093
:1011C00038B505460C46134B1B689B07FBD4124BE6
:1011D00093F90030002B01DBFFF7DEFE0F4BEE2210
:1011E0001A60691E1A60A21C43F8102C21440220C8
:1011F00000F03EFA013C0A4924012143022000F09C
:1012000049FA022000F050FA022000F065FA0020AE
:1012100038BD00BF4C8608407E0C0020388808404E
:1012200002C001C0F8B51F4B93F90030002B0DDB55
:10123000FFF7E8FB0446FFF7AFFEFFF7E3FB6FF0B5
:1012400009031B1BC342F8D4012600E00026FFF768
:10125000F9FE18B3144C236899061FD4134DE923E3
:101260002B60042723689A0707D4013F17F0FF0774
:1012700003D00620FFF7A2FBF4E723689B0704D402
:10128000EE232B6001242B6004E0206810F00200A4
:10129000FBD1044626B1FFF795FE01E00220F8BD20
:1012A0002046F8BD7E0C00204C8608403888084057
:1012B000044B1A6810B142F0010201E022F0010271
:1012C0001A6070470086084038B50C46072855D884
:1012D000DFE800F0040F1B1F26543B4F012903D108
:1012E000FFF75AFE002038BD002949D1FFF76AFEFA
:1012F000F8E7A1F10B030F2B42D8C8B2FFF77EFE2F
:10130000431C0CBF0320002038BD8CB2E2B21D4B41
:1013100002E08CB21C4BE2B2240A1A605C60E1E786
:1013200031F003052CD101F00100FFF7C1FF174B8D
:1013300014F002001A681BBF284642F0200222F077
:1013400020021A6008BF1A6038BD01F118031F2B74
:1013500016D80D230E49DA0051F83300844204DC1C
:101360008B181A790B4B1A60BCE713F1FF33F1D2DB
:10137000B8E7CCB2084B49341C60B3E7012038BD54
:10138000022038BDC8850840D08508402486084022
:1013900000482000408608405886084009280DD1A2
:1013A000082A0DD161B1074B013953F8042D01F81A
:1013B000012F054A9342F8D1002070470120704761
:1013C00002207047C8850840A885084009280DD12B
:1013D000082A0DD161B1074B083111F8012D43F8EE
:1013E000042F054A9342F8D100207047012070472E
:1013F00002207047A4850840C485084070B52B4E74
:10140000336813F0400308D0294D2B68DCB21B066B
:1014100005D5284BED221A601A60002070BD042CFF
:10142000F7D9023C8C42F4DCE4B2032C1BD0011946
:101430000139032000F024F9631E1F491B0103201A
:10144000194300F027F9032000F02EF9032000F0E3
:1014500043F9032000F04CF90028FAD129682D68DF
:101460002806D6D506E02B6803702B6843702B68DE
:101470008370F3E7493949B289B2042001F000FBD7
:10148000032005F07F0101F0FBFA33685A060BD503
:10149000064B1B681B0603D5084801F03FF803E024
:1014A000044BED221A601A60204670BD4C8608403D
:1014B000288808403888084002C0010C84000020B9
:1014C000F8B52B4E357815F001054ED1294B012486
:1014D0001C605C609C60A3F59323A3F51473F82251
:1014E0001A600922C3F89021152270331A6003F59F
:1014F0009B230B2203F59E731A60A3F59B23A3F590
:10150000F07340221A601A687F2742F020021A60A6
:10151000D52243F81C5CDF62DA61174B1878FFF7BD
:101520006DFD164A8D20136843F004031360FFF726
:101530002DFC134B8E201F60FFF728FC022000F0CB
:10154000BFF81049022000F09BF8032000F0B8F823
:1015500003200C4900F08CF80B48294600F0C6FF28
:101560003378204623433370F8BD0020F8BD00BF18
:101570007E0C0020A8200D40080100208C86084029
:1015800094860840288808408400002038B50388E5
:101590000446E3B140F2B932934203D00023038002
:1015A000032038BD822915D101F014FA01F0B4F9F5
:1015B0008021FFF723FF002805DD80B201F0A6F9A6
:1015C0000C4B1B6998470C4B1A78520604D440F216
:1015D000B9332380012038BD00221A70074B1D68E3
:1015E000FFF7F0FCFFF76CFFAB06F0D0FFF7D4FC81
:1015F000EDE700BFC04820007E0C00204886084070
:1016000008B5034800F08AFF024B00221A6008BDAB
:101610008400002034880840064B07481A68042AD2
:101620001FBF06490A7842F040020A7000221A6081
:1016300000F074BF2C880840840000207E0C00203D
:1016400010B5094C00212046402202F07DFB074BDB
:1016500001221A602E205C60FFF798FBBDE8104065
:101660002F20FFF793BB00BF0000002004F00F40C5
:1016700003289EBF014B0001195070470000002055
:1016800003289EBF024B03EB00104160704700BF70
:101690000000002003289EBF024B03EB0010816076
:1016A000704700BF0000002003289FBF03490123AB
:1016B0000A6883409CBF13430B60704728F00F40BB
:1016C00003289FBF034901230A6883409CBF13433B
:1016D0000B60704720F00F4003289FBF0349012390
:1016E0000A6883409CBF13430B60704714F00F409F
:1016F00003289FBF044B03EB0010806800F0070035
:1017000088BF0020704700BF00000020024B4FF050
:10171000FF321A60704700BF04F50F40014B0122F1
:101720001A6070474CF00F40094B1A6812F4801F82
:101730001A46F9D1043B196821F480311960116807
:10174000C903FCD41A6842F400321A60704700BF23
:1017500004200D4010B50A4B1A681C4612F0030F06
:101760000CD0084B1A685101FBD41A685201FCD501
:10177000FFF732F9FFF7D8FF0023236010BD00BF49
:1017800058200D4004200D4038B5254B1C6814F03E
:101790003F0413D1234B53F8243023B1984768B149
:1017A0000134032CF6D1204D2B783BB1FFF724F9FF
:1017B0000446FFF727F9201A092801D830BF38BDA1
:1017C000002CFBD0194B1A6822F400321A60184A18
:1017D0001168C902FBD4196841F48031196013689B
:1017E000DB03FCD5FFF70EF9201A092803D8BDE862
:1017F0003840FFF799BF63280E4C02D92B78022B93
:1018000000D00123236000F03BFE20B1FFF78CFFE6
:101810000023236038BDFFF7EFF80028CED1F5E7AD
:10182000488608400C0200207F0C002000200D405C
:1018300004200D4058200D400023064A52F8231082
:10184000814206D011B942F8230070470133032BBF
:10185000F3D170470C020020054B00221A60054AA4
:10186000136843F004031360034B01221A7070479E
:1018700058200D4010ED00E07F0C002030B5184BD3
:101880001A78431E3AB9174A1278122A03D1164A17
:1018900012784B2A03D001F52011273117E04A08AE
:1018A00002F12814B4F1281F04D014F8015D03F8E4
:1018B000015FF7E701F5201127310023934205DA94
:1018C00011F801598418E5540133F7E730BD074A90
:1018D000914204D011F8012903F8012FF7E730BD38
:1018E0002B0028002A0028002900280027002800B3
:1018F0000FB407B504AA52F8041B0448019200F083
:1019000021F803B05DF804EB04B0704794000020A8
:1019100070B505460C46102C07D92B686868084935
:101920001022984750B9103CF5E734B12B6868682D
:101930002246BDE8704002491847204670BD00BFEE
:10194000C14A20002DE9F04F80468FB006910792E2
:101950000026069B1B78002B00F05F83069B1C462D
:1019600013F8012B1AB9069B9C4203D10FE0252ADC
:10197000F5D1F8E7069BD8F80400E51A0699D8F8DF
:1019800000302A469847002840F02A832E442378C6
:10199000002B00F042836378611C002B00F03D8334
:1019A00000240A4611F8013B2B2B11D006D8202B1E
:1019B00011D0232B12D144F00804F2E72D2B04D0D0
:1019C000302B0BD144F01004EBE744F00104E8E7BE
:1019D00044F00604E5E744F00204E2E7A3F1310134
:1019E00008290DD8134600251A4613F8011BA1F14A
:1019F0003000092811D80A2202FB0515303DF3E713
:101A00002A2B09D1079B01321D68191D002D079152
:101A1000B8BF44F0010400E0002513782E2B1CD140
:101A20005178531CA1F1300009280ED8194600271F
:101A30000A780B46A2F13000092801F101010FD804
:101A40000A2303FB0727303FF2E72A2906D1931C1C
:101A5000079A111D0791176802E013464FF0FF37F0
:101A60001A786C2A09D15A786C2A02D144F0800481
:101A70000AE0013344F060040BE0682A09D15A7887
:101A8000682A03D144F02004023302E0013344F019
:101A900040041A78642A3CD01FD8462A48D00DD872
:101AA000252A5AD003D8002A00F0B78257E0412AED
:101AB0004AD0452A53D144F4424450E0582A31D008
:101AC00004D8472A4BD144F4A13448E0612A38D0E5
:101AD000632A44D144F4A06441E06E2A3AD007D886
:101AE000662A22D027D3672A28D0692A11D036E067
:101AF000732A2CD006D86F2A11D0702A2FD144F423
:101B000040742CE0752A07D0782A28D144F4C854B0
:101B100025E044F4245422E044F410641FE044F42B
:101B200088541CE044F4B24419E044F4007416E014
:101B300044F4844413E044F4024410E044F4813457
:101B40000DE044F4C1340AE044F4E13407E044F425
:101B5000806404E044F4E06401E044F4C0640133D0
:101B6000069304F4E063B3F5806F00F0AA8116D801
:101B7000B3F5807F2BD0B3F5407F7FF4EAAE079BAF
:101B8000A04914F4804F03F104029F4818BF08468F
:101B90000DF1330107920F461A680023C5E1B3F532
:101BA000C06F08D0B3F5E06F00F03182B3F5A06FDD
:101BB0007FF4CFAE00E2D8F80030D8F804009349A3
:101BC00001229847002840F00B820136C1E6002F21
:101BD000ACBF24F01004012714F40053039304F065
:101BE000E00337D0402B17D008D8DBB1202B2AD107
:101BF000079B1A1D079293F9002017E0602B11D064
:101C0000802B20D1079B073323F0070303F1080241
:101C10000792D3E900230AE0079B1A1D0792B3F944
:101C2000002003E0079B1A1D07921A68D317002AA9
:101C300073F1000109DA524263EB4303CDE900235B
:101C40004FF0010933E000220023CDE900234FF0DB
:101C500000092CE0402B16D007D8CBB1202B20D187
:101C6000079B1A1D07921A78EEE7602B10D0802B85
:101C700017D1079B073323F0070303F108020792EC
:101C8000D3E90023E1E7079B1A1D07921A88DBE7D7
:101C9000079B00211A1D07921B681846CDE9000119
:101CA000D5E700220023CDE900234FF0000904F41A
:101CB000C053B3F5805F0CD0B3F5C05F33D0B3F53C
:101CC000006F4FD1DDE900230DF1360ACDE9042381
:101CD00004E0DDE900230DF1360A15E0DDE9042317
:101CE00013433AD0DDE904010A22002301F0ACFCE1
:101CF000DDE9040130320AF8012D00230A2201F047
:101D0000A3FCCDE90401E9E752EA030125D002F082
:101D1000070130310AF8011DD10841EA4371D808A2
:101D20000A460346F0E7384B14F4804F0DF1360AAB
:101D3000344908BF1946DDE9002352EA03000CD0FC
:101D400002F00F00085C4FEA131E0AF8010D10099B
:101D500040EA037002467346EFE70DF1360BCAEB1B
:101D60000B0B03E00DF1360A4FF0000B41F60802B1
:101D700041F208035F4502EA04028CBFCBEB070780
:101D800000279A4202D1002F08BF012741F608011F
:101D90008A4207EB0B030DD1DDE9000150EA010295
:101DA00008D01B4914F4804F1A4A4FF0020C18BF98
:101DB0000A4602E04FF0000C62460399A1B1B9F166
:101DC000000F0AD104F0060102290AD0062912499F
:101DD00004BF4FF0010C0A4606E04FF0010C0F4A19
:101DE00002E00F4A4FF0010C63449D428CBFED1A94
:101DF000002514F0010922D1E30613D52F444D46E6
:101E00001DE000BF8C4A20009D4A2000BF4A2000F0
:101E1000B14A2000AE4A2000B64A2000B44A200051
:101E20000C4A200040462946CDF80CC00092FFF72E
:101E30006FFD009ADDF80CC0002840F0D180BCF1A5
:101E4000000F0DD01146D8F800306246D8F80400D3
:101E5000CDF800C09847DDF800C0002840F0C080F1
:101E60003C465E44102CD8F800300DD9D8F8040058
:101E70006C491022CDF800C09847002840F0B0808F
:101E8000103CDDF800C0EDE75CB1D8F8040065490E
:101E90002246CDF800C09847DDF800C0002840F089
:101EA0009F80D8F80030D8F8040051465A4666445E
:101EB0009847002840F094803E44B9F1000F79D053
:101EC00073E0079BD3F800A01A1D0792BAF1000F28
:101ED00009D05346994699F800200133002AF9D1D8
:101EE000CAEB090903E0DFF840A14FF00609002F13
:101EF00002DBB94528BFB9464D458CBFC9EB050586
:101F0000002514F0010405D140462946FFF700FDE5
:101F1000002865D1D8F80030D8F8040051464A4668
:101F2000984700285CD14E443EE052EA030E0ED0A2
:101F300002F00F0E10F80EE04FEA131C01F801ED4D
:101F40004FEA121E4EEA037E72466346EDE70B46E9
:101F50007F1A01BF3022012701F1FF3301F8012C64
:101F600003377822BD4203F8012C4FF0300203F80A
:101F7000022C88BFED1B4FF0230298BF002514F000
:101F80000104A3F1030903F8032C04D140462946B8
:101F9000FFF7BEFC20BBD8F80030D8F80400494653
:101FA0003A469847E0B93E4424B140462946FFF7F7
:101FB000AFFCA8B92E44CCE4079B012D03F1040229
:101FC0001B688CBF05F1FF35002514F00104079252
:101FD0008DF8203008D140462946FFF799FC10B112
:101FE0004FF0FF301AE02E44D8F80030D8F8040043
:101FF00008A9012298470028F2D16F1C2CB1404655
:102000002946FFF785FC0028EAD13E44A1E4079B5E
:102010001A1D1B6807921E609BE430460FB0BDE896
:10202000F08F00BF7C4A2000B84A2000F8B5038832
:10203000064615462BB14A2B15D0002303800320FA
:10204000F8BD174801F0E2FF04462CB1201DA1683D
:1020500001F0B3FF2468F8E7124B01221A704A23FB
:1020600033800120F8BD8829FBD10D4801F0CEFF57
:102070000446002CF3D0231D9D420ED10848214672
:1020800001F0CEFF084B62691F681A60A2691D4605
:102090000AB1E06990472F60E1E72468E9E700BFF3
:1020A00018020020800C00202802002010B5064BEA
:1020B000002406481C7001F0A6FF2146BDE8104030
:1020C000034800F013BA00BF800C00201802002063
:1020D0009C00002070B504460A4DE3610A4B2E684F
:1020E0001B786661A26133B1084B201D2B6001F0A3
:1020F00064FF2E6000E0A1602146BDE87040044806
:1021000001F0A2BF28020020800C00209C000020CB
:102110001802002010B5084B04461B781BB1043090
:1021200000F0A8F801E0C36003612146BDE810405B
:10213000024801F075BF00BF800C0020180200208B
:1021400010B50E4C236813B90D4A136010BDFEF78D
:102150002BFC216891E80C001A44131A8A6842B1DA
:1021600092E812002144091A8B4228BF0B4692685C
:10217000F5E71844024B186010BD00BF1C02002098
:1021800020020020014800F0C9B900BFAC000020C7
:10219000F8B5038805462BB1592B09D000230380DD
:1021A0000320F8BD1E4A136059232B800120F8BD7F
:1021B000872920D08229F7D1194F00263C68002CAE
:1021C000F2D0204601F011FF90B1E068882122464C
:1021D00000F060F950B9E060A3680EB1B36000E0B0
:1021E0003B600023A360FFF7ABFFE5E7FFF7CAFF03
:1021F0002646A468E3E70A490B680BB90B60D3E7EE
:10220000D868904201D19B68F7E70B609968002974
:10221000CAD0C86890420ABF89680B469960F5E742
:102220001C02002010B50446FFF7ACFFE3680B4A20
:102230004BB113683BB1A34203D1094A1268DA607B
:1022400007E09B68F6E7064B1B68E36013681460C1
:10225000A360BDE81040FFF773BF00BF1C02002061
:1022600028020020024B1868003018BF0120704778
:102270001C02002010B50B4A04461368984206D190
:102280008368136008E09A68A24203D01346002BCB
:10229000F9D103E0A2689A60FFF752FF0023A36020
:1022A000E36010BD1C02002038B5836804460D466B
:1022B0009BB10A4804600220A07304F10C00984707
:1022C0000238012801D9832D05D120462146BDE8D9
:1022D000384000F005B80123A37338BD2802002060
:1022E0002DE9F8431C4A0446156889462B4690465A
:1022F0001A4E3768A34204D00BB11B68FAE7BDE859
:10230000F88334B3A37BABB10023A37345B1AC42D4
:1023100004D028468721224601F058FE2D68F5E7B3
:10232000A3683BB14C4505D0346004F10C00832117
:102330002A469847D8F800309C4203D12268064BC1
:1023400005E0134623B11A68A242FAD122681A6046
:102350003760BDE8F88300BF30020020280200206B
:1023600010B5094B00221A70084B1C685CB1E37B66
:102370003BB101230022A373E27320468221FFF7C1
:1023800093FF2468F2E710BD850C00203002002086
:10239000024B1878421C1A70704700BF860C002050
:1023A000064B8A221A70064A00231370054A1370DE
:1023B000054A1360054A1360704700BF860C002071
:1023C000820C0020840C0020300200202802002013
:1023D0002DE9F041214E33780BB1FFF7C1FF204DBD
:1023E0002C78002C34D0DFF88CE00C229EF80030E2
:1023F0001C495A4388181C4F895CDFF87C8042686E
:10240000DFF878C08068013303F01F03013C3970A6
:10241000C8F80020CCF800008EF800302C7088B985
:10242000124C134B1B68236023688BB133780BB1BC
:10243000FFF796FF20683978D8F8002001F0C6FD34
:102440002368EFE7812904BF0123837301F0BEFDF8
:10245000337828781844BDE8F08100BF850C00204F
:10246000840C002034020020830C00202C02002069
:1024700030020020820C002024020020B40300203F
:10248000024A034B10781B7818447047840C0020D4
:10249000850C0020F0B50C4E3478202C11D00B4B5D
:1024A0000B4D1B780B4F234403F01F032B700C259F
:1024B0006B430134FD18A860F9546A603470002041
:1024C000F0BD0120F0BD00BF840C0020820C002074
:1024D000810C00203402002038B5034C256801F03F
:1024E00075FD256038BD00BF2802002010B50A46E2
:1024F00009490C68234683420DD00BB11B68FAE7EB
:1025000048B1046008600121817383818121BDE8A5
:102510001040FFF7E1BF10BD3002002038B1837BCF
:10252000013B012B9FBF024A0123C3731370704705
:10253000850C0020024610B5064853600468029BD3
:1025400011609360026014B90846FEF771FA00202A
:1025500010BD00BFB803002010B5084C206858B16A
:1025600000232360816843689847236823B1BDE84E
:1025700010401868FEF75CBA10BD00BFB803002019
:1025800038B505880446672D09D0792D2ED0002D49
:1025900032D1FFF7FDFE1B4B18701B4B1D601B4813
:1025A00001F08FFD431C01D167231DE00A28164B63
:1025B00007D01A687E2AF2DC511C1960144B98541B
:1025C000EDE7196800254A1C1A60114A0D4B555455
:1025D00028461978FFF75EFF0E4B852118682A46BA
:1025E000FFF758FF20B97923238009E0852907D117
:1025F000054B00221A60D2E700230380032038BD78
:10260000012038BDF60D0020C4030020BC030020CB
:10261000080D0020280200200D2810B5014615D015
:102620000B4C23782BB90B4801F037FD48B9012337
:1026300006E00A2805D1074801F02FFD08B1002364
:1026400023700548FFF76AFF012010BD002010BD70
:10265000070D0020BC030020BC00002008B5054881
:102660000549802201F012FDBDE808400348002121
:10267000FFF73CBFBC030020870C0020BC000020FB
:10268000054A136843F004031360044B1B68906908
:1026900043EA002080B2704700700D4014700D4076
:1026A000174A136823F00C031360164B01221A60BB
:1026B0001A68012AFCD1144B08221A60E322C3F8DD
:1026C000142203F505731946104B1B68DB07FBD575
:1026D000102000230E4A0138126802F0010243EA7A
:1026E00002034FEA43039BB2F4D1002BF0D0094A16
:1026F000180A03F0FE0310601360EF230B607047AD
:1027000000700D40A8200D402486084064860840D3
:102710009C86084014700D4070B505460C46164660
:10272000044A00F033FD6E612046BDE87040024966
:1027300001F0EFBC90482000FA4A200010B5044692
:1027400004491A2000F0AAF92046BDE8104001F023
:1027500087BD00BFAE0D0020014801F054BC00BF92
:10276000C8030020034681800148194601F06CBC73
:10277000C80300200146014801F052BCC8030020F4
:1027800010B50446054801F041FC28B18388A342F6
:1027900002D001F078FCF8E710BD00BFC8030020AC
:1027A000F8B507460A480D46164601F02FFC0446C8
:1027B00038B1A3680BB128469847204601F063FC66
:1027C000F5E7384629463246BDE8F84001F04FBDEE
:1027D000CC03002038B500F091FD0546094801F012
:1027E00015FC044630B1636803B19847204601F0F8
:1027F0004AFCF6E725B12846BDE8384001F032BD75
:1028000038BD00BFCC03002010B5044600F084FDA5
:1028100038B100F023F8034B034821469B689847E2
:10282000012010BDF0482000A1272000074B10B563
:102830001B689847064B5B689847064B5B68984750
:10284000BDE81040044B5B68184700BFC847200034
:10285000C0482000A44820009848200030B5094B0B
:1028600018881A4668B1084B1988302330318B42DA
:1028700005DA064C2518ED5C1D550133F7E70023FA
:10288000138030BD4806002046060020D4030020F7
:10289000F8B50E4B0E4A1B781688C3F13005AC19FB
:1028A000802C07460EDC0B492A46194401F0D6F964
:1028B000094A0A4B11681B8878191944324601F0FD
:1028C000CDF900E000242046F8BD00BF880D0020AF
:1028D00046060020D4030020D00300204806002034
:1028E00010B508490B888342A1BF074C80B22288EB
:1028F0001218A1BF181A088022800120B8BF00203A
:1029000010BD00BF4606002048060020014B18807D
:10291000704700BF46060020024B1888024B18443F
:10292000704700BF4806002004040020024B034803
:102930001B781844704700BF880D0020D403002086
:10294000014B1888704700BF46060020044B1878DA
:10295000C0F1300010F0FF0004BF024B1878704740
:10296000880D00204806002008B5FFF7EFFF024B56
:102970001B88184480B208BD4606002070B5084E7A
:1029800005463478844208DBFFF7EEFF28448028B0
:1029900003DC641B3470012070BD002070BD00BFDB
:1029A000880D002010B50023074A002422F81340A8
:1029B00001331A2BF8D1054805492044023401F0AF
:1029C000C8FB082CF7D110BDB80D0020B00D0020B9
:1029D0002C492000064A00231380064A1380064B28
:1029E00030221A70054A064B1A60FFF7DBBF00BFA2
:1029F0004806002046060020880D00200404002020
:102A0000D003002038B50C460546FFF7E3FF802CC5
:102A1000054B28BF802418682946224601F01EF97C
:102A2000024B20461C8038BDD00300204606002003
:102A300010B5074B03F1340253F8044B934240F8AE
:102A4000044BF9D1034A13680B6053684B6010BD07
:102A5000B80D0020B00D002010B5074B00F1340276
:102A600050F8044B904243F8044BF9D10B68034AE9
:102A700013604B68536010BDB80D0020B00D0020EE
:102A8000024B23F810100120704700BFB80D002042
:102A9000014B33F810007047B80D002008B5044B07
:102AA0001A3803EB400001F054FB012008BD00BFC1
:102AB000B00D0020024B1A3803EB4000704700BFF6
:102AC000B00D00200148024901F046BBB20D0020C4
:102AD0002C49200008B5044801F078FBBDE8084007
:102AE000024801F073BB00BFD8000020CC000020DA
:102AF00038B50E4801F07AFB0446A8B10C4801F045
:102B000075FB0546206028B92146084801F082FB84
:102B1000284638BDFFF7BCFE05F1B601A5F88000D8
:102B200005F18200FFF784FF204638BDCC0000206D
:102B3000D800002010B504460748214601F080FB6C
:102B400048B12168054801F065FB2146BDE8104009
:102B5000014801F05FBB10BDCC000020D800002070
:102B600010B504460948214601F06AFB68B12468A3
:102B7000B4F880102046FFF745FF04F1820004F10D
:102B8000B601BDE81040FFF767BF10BDCC000020C4
:102B9000014B1B69184700BFF0482000014B5B69DF
:102BA000184700BFC0482000014B9B69184700BF71
:102BB000C0482000024BD86900B10047704700BFF1
:102BC000C048200013B5044668B1006B01F01EFA3E
:102BD000024640B12146054B0548DB68019302B02F
:102BE000BDE81040184702B010BD00BFC04820002B
:102BF000012E20002DE9F04107461B208846FFF7F3
:102C000059FF4B4B05461A784A4C22B901221A70DB
:102C1000FFF736FD2080238813B9464B01221A8026
:102C200021880A204B1C2380FFF72AFF424801F02D
:102C3000EDF9044640B1201D294601F08DFAE8B9AE
:102C4000204601F020FAF4E73C4801F0CFFA0446B0
:102C500050B32946201D01F07CFA002304F12C001A
:102C6000206384F8283084F8293084F82A30E3621D
:102C700001F0C9F93048214601F0E6F9206B01F076
:102C8000FBF9072810DC2E4801F0B0FA054698B988
:102C9000206B01F0F1F938B92748214601F0C0F95D
:102CA0002648214601F0B6FA38464146BDE8F041D3
:102CB0000422012301F064BA224801F097FAA860C7
:102CC00078B3FFF715FF686038B30920AE68FFF7E7
:102CD000DFFE10B90323337203E00920FFF7D8FEAB
:102CE000307286E880010D20FFF7D2FE01282946C8
:102CF000206B02D101F0B7F901E001F0A5F9206BDA
:102D000001F084F9854211D104F108002346BDE8A1
:102D1000F04100210C4AFFF7DDB90A48A96801F02B
:102D200079FA2946064801F075FAB1E7BDE8F08165
:102D3000990D00203A0C002004050020F00000202E
:102D4000FC000020E4000020C52B200008B5054849
:102D500001F03CFA044801F039FABDE808400348A4
:102D600001F034BAFC000020E4000020F000002054
:102D700070B504460D46002935D0006B01F050F9BE
:102D80006868FFF7D7FEA968174801F043FA29469B
:102D9000164801F03FFA206B01F038F904F10805FC
:102DA000A0B1002384F8283084F8293084F82A3030
:102DB0000F4BDB6998472346002814BF01461021BA
:102DC0000C4A2846BDE87040FFF784B92846FFF753
:102DD000A1F92146084801F023F92146BDE87040D9
:102DE000064801F017BA70BDE4000020FC00002086
:102DF000C0482000C52B200004050020F000002062
:102E00002DE9F14F0E46044600286DD0032914D851
:102E1000DFE801F00208020E90F828301A4480F82A
:102E200028200AE090F829301A4480F8292004E08C
:102E300090F82A301A4480F82A20206B01F0E6F836
:102E40000546002850D00A21686801F093F907462A
:102E50000A20FFF71DFE874203D0284601F013F930
:102E6000EEE7D5F80880B8F1000F3DD0731E012BB6
:102E7000D8F800B0D8F8049094F8287027D81C4BE4
:102E8000DB699847002814BF82464FF0100AFFF70D
:102E9000F7FB94F8282098F808309A4217D2032FAD
:102EA000A8BF03270123BB4003FB0AF3B0FBF3F2E7
:102EB00003FB120104F1080051440E4A2346FFF7B8
:102EC00009F9686801B0BDE8F04F01F04DB920463E
:102ED0002946FFF74DFF5846494632463B4601B06A
:102EE000BDE8F04F01F04CB901B0BDE8F08F00BF74
:102EF000C0482000C52B2000014B1B6A184700BFAB
:102F0000C84720002DE9F043054685B00E461A203B
:102F10003F49FFF7C3FD01210B20FFF7B1FD3D4BFA
:102F20009B689847002868DBFFF700FD3A4C90F853
:102F300002806768FFF7FAFC8146FFF715FD01463E
:102F40004846B847FFF7BEFDD4F818900746C84773
:102F500000284FD15FB1A3680193FFF705FD019BE6
:102F6000984748B102280CBF0122042243E0E369DC
:102F7000984700283ED1EEE717B1002201243EE039
:102F8000FDF740FD0746FDF7D1FEFDF73BFD6FF075
:102F90000C03DB1BC342F8D4C84728B1FDF732FD50
:102FA0000746FDF7C3FE09E0E36998470028F5D11D
:102FB000194B5B6998470028F0D019E0FDF722FD16
:102FC0006FF01403DB1BC342F8D4E369984778B170
:102FD000114B03A803211B69984703280AD19DF8C8
:102FE0000E20B2EB080218BF0122002AC5D002E071
:102FF000022200E00122002401E00522FBE728462E
:103000003146012301F0BCF8204605B0BDE8F0834D
:10301000AE0D0020E0482000C847200082B0044BDD
:1030200008B11B6A00E05B6A019302B0184700BF59
:10303000C847200007B5FFF783FC03281BD00F4BC0
:10304000DB689847002816DB1B20FFF733FD0C498F
:1030500001F082F858B100F015FA60B900F02CFACE
:10306000084BDB68019303B05DF804EB1847FFF7EA
:1030700029FD0028EFD103B05DF804FBE0482000F3
:10308000AE0D0020A448200008B5024B1B689847ED
:10309000023008BD104920000C4B70B5DB68984722
:1030A000041E02DA4FF0FF3070BDFFF735FC0678E2
:1030B0000546002EF6D10220FFF712FC0028F1D0C1
:1030C0006878FFF723FC6E70A01C70BD10492000CB
:1030D00008B50220FFF752FC10B94FF0FF3008BDD1
:1030E000FFF724FC002303704370034B5B68984791
:1030F0000028F2DB023008BD1049200070B5FFF750
:10310000E7FF051E02DA4FF0FF3070BDFFF7A6FBA8
:10311000124BDB6898470028F5D0FFF7FDFB04460B
:10312000FFF70EFC04F8010CFFF71EFC2A2812DC46
:10313000C0F12B04FFF7F0FB0646FFF701FCE4B2F9
:1031400000212246304400F0FFFDFFF7F9FB204448
:1031500080B2FFF7DBFB284670BD00BFF0482000BF
:10316000014B9B68184700BF9848200070B5054682
:103170000C4614200121FFF783FC034B284621460F
:10318000BDE870409B681847A448200070B505460C
:103190000C461646FFF7E6FA2E612046BDE8704061
:1031A000014900F0B6BF00BF184B2000014800F0F5
:1031B0002ABF00BFD0050020014B1860704700BF38
:1031C000D4050020014800F021BF00BFD005002039
:1031D0002DE9F04106460B480C46174600F016FF55
:1031E00070B18388A34208D185684DB1314622462B
:1031F0003B46AC46BDE8F041604700F044FFEFE7D6
:10320000BDE8F081D005002010B50B4C0B4A616E73
:1032100004F138000023FEF75DFFFFF731FA636E1B
:10322000074AB0FBF3F101FB130104F1180000237E
:10323000BDE81040FEF74EBFD80500204532200003
:103240005D322000044B5A6E196E52008A4294BFC0
:103250005A665966FFF7D8BFD805002010B5FFF7AA
:10326000B9FBFFF759FB002303800446FFF7AAFFD1
:1032700068B1037B5BB12388818804EB83025180B2
:10328000C18801339180238000F0FDFEF0E72088A3
:103290008000023080B2FFF739FB238823B1BDE8FC
:1032A00010400248FFF74ABA10BD00BFD805002001
:1032B0009DF80030012B04D1024B9A6D5A66FFF73E
:1032C000A3BF7047D8050020F8B586460F461646BE
:1032D0001D46074C71462046064AFFF71DFAA765B2
:1032E000E66525660448BDE8F840FFF765BF00BF06
:1032F000D805002008492000B1322000054B10B548
:103300001B689847044618B10120A188FFF7B8FB55
:10331000204610BD2049200038B5064B05465B68A5
:1033200098470446A9880120FFF7AAFB201C18BF74
:10333000012038BD20492000014B9B68184700BF81
:103340002049200030B591B03C220546002101A85B
:1033500000F0FAFC3C4B1A782AB901221A70FFF7E8
:103360008FF93A4B18701420FFF792FB8DF8140078
:103370001320FFF78DFB8DF81600FFF7A3FB18B1A4
:1033800000238DF8173004E00B20FFF781FB8DF848
:103390001700002301248DF818308DF81A40ADB1C4
:1033A0000A20FFF775FB28B10A20FFF771FB8DF8A3
:1033B0001C000BE0254B1A7802B91C7019780A2002
:1033C0004A1C1A708DF81C10FFF75AFB4AF6CD33D1
:1033D00002248DF81B40ADF81E30FFF773FB38B1A7
:1033E000FF238DF819408DF804308DF8053008E082
:1033F0001B20FFF75FFB014601A800F0AAFE8DF835
:1034000019404AF6CD33124903A8ADF8203000F038
:10341000A0FEFFF781FA0E90FFF792FA0F9001A835
:1034200001F0F6F8044645B1FFF7A8FA38B1FFF706
:103430007DFA014601A801F001F9204601E04FF0B4
:10344000FF3011B030BD00BFAD0D0020AC0D00202D
:10345000AE0D0020094B10B55B689847041E0ADBCF
:10346000FFF7FCF9064BDB689847002814BF20469D
:103470004FF0FF3010BD204610BD00BFE0482000D7
:10348000F048200038B500240A4D1A2005EB8405C9
:10349000FFF710FB294600F05FFE38B10A20FFF766
:1034A000F7FAAB781B1A5842584138BD0134102C3A
:1034B000EAD138BD3C0C002038B50025104C1A204C
:1034C000FFF7F8FA04EB850100F046FE6B1C10B91B
:1034D000102B1D46F2D1013B2BB1013B04EB8302C3
:1034E00011685160F8E70A20FFF7D2FAA0701A209D
:1034F000FFF7E0FABDE838400146014800F029BE78
:103500003C0C002010B54378047843EA0420054BB6
:1035100088409B5CC2F1080203EA20201041C0B23F
:1035200010BD00BF1A4B200002292DE9F0470546C7
:103530008846144640F382800378427803F00701FE
:103540002174C3F3C001C3F38019C2F3810A970940
:103550006174C2F30112C3F30011C3F34013A174E9
:10356000E37484F8149084F815A0A275E775837845
:103570002376BAF1000F22D00279C378BAF1020F94
:1035800003EB0223638300F1050609D120462D4990
:1035900000F0DFFDAB79EE1D23706B79637015E0F1
:1035A000BAF1030F12D100F10D031946621E13F890
:1035B000010DB34202F8010FF9D10E4606E0C61C18
:1035C0002049204600F0C5FDA4F81AA02FB3B9F198
:1035D000000F05D1727816F8023B03EB022300E0DE
:1035E000638B022FA3830AD104F10800154900F070
:1035F000B0FD7378237216F8023B637213E0032F59
:1036000011D108363246E31D04F10F0112F8010D05
:1036100003F8010F8B42F9D105E004F108000949D4
:1036200000F097FDA783751BC5EB0803A3636663D2
:103630004545D4BF28460020BDE8F0870020BDE8FE
:10364000F08700BF2C49200053B94AB9002908BFB0
:1036500000281CBF4FF0FF314FF0FF3000F03CB8A6
:1036600082B0EC462DE9005000F01EF8DDF804E0D1
:1036700002B00CBC704700BF2DE9F041069C90469B
:1036800006460F461D4600F029F808FB01FCA8FB82
:10369000002300FB05C5B21A2B4467EB03038646E3
:1036A000C4E90023BDE8F0812DE9F843089E1746E0
:1036B000804689461D4600F067F900FB05F3A0FB34
:1036C000074507FB0137B8EB04043D4469EB0505EA
:1036D000C6E90045BDE8F883704700BF00292DE921
:1036E000F043C0F2A8800026002BC0F29E808146E5
:1036F0008E4690469C46174604460D46002B3DD10B
:103700008A4259D9B2FA82F33BB1C3F120029D40FB
:1037100020FA02F29F4015439C40390CB5FBF1F0B2
:103720001FFA87FE01FB10550EFB00F3220C42EA44
:103730000545AB4209D9ED1900F1FF3280F00B814C
:10374000AB4240F2088102383D44ED1AB5FBF1F37B
:1037500001FB13550EFB03FEA4B244EA0545AE453A
:1037600008D9ED1903F1FF3280F0F780AE4540F241
:10377000F480023B43EA0043002203E08B420FD96E
:1037800000221346341C18BF012460424FF000058C
:1037900065EB45015840514000196941BDE8F0838F
:1037A000B3FA83F2002A40F089808B4202D380452D
:1037B00000F2E2800123E5E712B90123B3FBF2F73F
:1037C000B7FA87F8B8F1000F3BD1ED1B4FEA174C61
:1037D0001FFA87FE0122B5FBFCF00CFB10550EFB17
:1037E00000F3210C41EA0545AB4207D9ED1900F180
:1037F000FF3102D2AB4200F2C3800846ED1AB5FB9E
:10380000FCF30CFB13550EFB03FEA4B244EA054582
:10381000AE4507D9ED1903F1FF3102D2AE4500F2F2
:10382000AD800B4643EA0043ACE752426FEA06061E
:1038300063EB43035BE7404261EB41014FF0FF362E
:1038400052E707FA08F7C8F1200225FA02F34FEA17
:10385000174CB3FBFCF11FFA87FE0CFB113324FA63
:1038600002F205FA08F50EFB01F92A43100C40EAB2
:103870000343994504FA08F407D9DB1901F1FF3035
:1038800078D2994576D902393B44C9EB0303B3FB9F
:10389000FCF00CFB10330EFB00F592B242EA03433E
:1038A0009D4207D9DB1900F1FF325FD29D425DD9FD
:1038B00002383B445D1B40EA01428CE7C2F1200321
:1038C00028FA03F10CFA02FC41EA0C0C4FEA1C4006
:1038D0002EFA03F1B1FBF0F51FFA8CF700FB15117E
:1038E00029FA03F30EFA02FE07FB05F943EA0E0E6E
:1038F0004FEA1E4343EA0141894508FA02F808D914
:1039000011EB0C0105F1FF3332D2894530D9023D6C
:103910006144C9EB0101B1FBF0F300FB131107FB9C
:1039200003F71FFA8EFE4EEA014E774508D91EEBCB
:103930000C0E03F1FF3117D2774515D9023BE6444F
:1039400043EA0543A3FB0889C7EB0E0ECE4509D316
:1039500005D0002216E71046F7E613460AE7944022
:103960004445F6D2013BF4E70B46E9E71046A1E7F0
:103970001D46CEE7014688E7134603E7023B51E7C1
:1039800002383D443AE700BF2DE9F043002B44D113
:103990008A42154604464FD9B2FA82F70E464FB115
:1039A000C7F12003B94020FA03F602FA07F50E43E7
:1039B00000FA07F42F0CB6FBF7F01FFA85FE07FBA1
:1039C00010620EFB00F1260C46EA0243994209D927
:1039D0005B1900F1FF3280F0EE80994240F2EB80FB
:1039E00002382B44591AB1FBF7F307FB13110EFBF6
:1039F00003FEA4B244EA01418E4508D9491903F1F6
:103A0000FF3280F0DA808E4540F2D780023B43EAF5
:103A1000004000263146BDE8F0838B4247D8B3FA18
:103A200083F6002E48D18B4202D3824200F2CF802F
:103A300001203146BDE8F08312B90125B5FBF2F54E
:103A4000B5FA85FCBCF1000F78D1491B2F0C1FFA89
:103A500085FE0126B1FBF7F007FB10110EFB00F20B
:103A6000230C43EA01418A4207D9491900F1FF3387
:103A700002D28A4200F2BC801846891AB1FBF7F3E1
:103A800007FB13110EFB03FEA4B244EA0142964564
:103A900008D9521903F1FF3180F09180964540F228
:103AA0008E80023B43EA00403146BDE8F0830026A9
:103AB00030463146BDE8F083C6F1200422FA04F511
:103AC000B3402B4321FA04F74FEA1348B7FBF8FC45
:103AD0001FFA83F908FB1C7720FA04FE01FA06F5A9
:103AE00009FB0CF44EEA05054FEA154E4EEA07476E
:103AF000BC4202FA06F204D9FF180CF1FF3168D378
:103B00008C463F1BB7FBF8F408FB147709FB04F95C
:103B1000ADB245EA0741894504D9C91804F1FF351A
:103B20005DD32C4644EA0C44A4FB0223C9EB0101FB
:103B3000994249D345D0204600266BE7CCF12004BA
:103B400005FA0CF521FA04F32A0CB3FBF2F61FFA7E
:103B500085FE02FB163820FA04F701FA0CF10EFB81
:103B600006F90F433C0C44EA0843994500FA0CF46B
:103B700007D95B1906F1FF3138D2994536D9023E93
:103B80002B44C9EB0303B3FBF2F002FB10330EFB33
:103B900000F1BFB247EA0343994207D95B1900F12C
:103BA000FF3721D299421FD902382B441746591AA0
:103BB00040EA06464EE7104614E7134627E70B4651
:103BC00070E7B0409042B6D2601E002622E7304631
:103BD00020E7BC4294D9ACF1020C1F4491E789451F
:103BE0009FD9023C19449DE73846DFE70E46C8E7F7
:103BF0000238294441E700BF032A70B426D940EABD
:103C000001039B0711D004780D78AC4222D1024405
:103C1000431C05E013F8014B11F8015FAC4219D1C8
:103C20009342F7D1002070BC70470C4603461E68D3
:103C300025681846AE42214603F1040304F104044A
:103C400004D1043A032A18462146F0D8002ADAD1D2
:103C50001046E8E7601B70BC704700BF844641EA2D
:103C6000000313F0030349D1403A23D30B680360E8
:103C70004B6843608B688360CB68C3600B690361EA
:103C80004B6943618B698361CB69C3610B6A0362D2
:103C90004B6A43628B6A8362CB6AC3620B6B0363BA
:103CA0004B6B43638B6B8363CB6BC363403040319F
:103CB000403ADBD230320BD30B6803604B68436071
:103CC0008B688360CB68C36010301031103AF3D238
:103CD0000C3205D351F8043B40F8043B043AF9D2C6
:103CE000043208D0D2071CBF11F8013B00F8013B99
:103CF00001D30B8803806046704700BF082A13D3A6
:103D00008B07B1D010F00303AED0C3F10403D21A75
:103D1000DB071CBF11F8013B00F8013BA4D331F8CD
:103D2000023B20F8023B9FE7043AD9D3013A11F84D
:103D3000013B00F8013BF9D20B7803704B784370DC
:103D40008B7883706046704770B4840746D0541EE9
:103D5000002A41D0CDB2034602E0621EE4B314460D
:103D600003F8015B9A07F8D1032C2ED9CDB245EAAE
:103D700005250F2C45EA054519D9264603F1100201
:103D8000103E0F2E42F8105C42F80C5C42F8085CC2
:103D900042F8045C02F11002F2D8A4F1100222F001
:103DA0000F0204F00F041032032C13440DD91E46E9
:103DB0002246043A032A46F8045BFAD8221F22F06E
:103DC00003020432134404F003042CB1C9B21C44AE
:103DD00003F8011BA342FBD170BC70471446034695
:103DE000C2E700BFFEE708B5FCF750FA0220FCF777
:103DF00041BB73B50646002425463046FCF732FB2E
:103E000000230193019BAB4203DA00BF019B013306
:103E1000F7E73046FCF72EFB00230193019AC5F526
:103E2000C8739A4203DA00BF019B0133F5E70134FE
:103E3000B4F5487F05D0B4F5C87FDDDDC4F548751D
:103E4000DBE702B070BDCB43D0F820241A40C0F8A5
:103E50002024D0F800241A40C0F80024D0F804240C
:103E60001A40C0F80424D0F808241340C0F80834DD
:103E7000D0F80C340B43C0F80C34D0F8103419438C
:103E8000C0F81014704701207047FCF73FBD704721
:103E90000020FCF721BE0120FCF71EBEEFF31080CE
:103EA00062B67047EFF3108072B670470020FCF7DF
:103EB000CBBF0120FCF7C8BF0220FCF7C5BF032021
:103EC000FCF7C2BF10B50C46FDF77AF92046BDE8F5
:103ED0001040FDF7A7B910B504460020E1B2FCF789
:103EE0000BFF204610BD70B5054604464618601B02
:103EF00044B1237833B1B44204D018460134FFF7FB
:103F0000EAFFF4E770BD38B50546002415F8010B4B
:103F100020B1FFF7E0FF0134002DF7D10A20FFF7B1
:103F2000DAFF204638BD002070470120704710B5E9
:103F3000044600210E203022FCF7E0FF84B1012C62
:103F40000CD142F210730011A0F28E5058432A2374
:103F500090FBF3F000F5C340283010BD4FF0004057
:103F600010BD002070470120704710B504460021A5
:103F70000F203022FCF7C2FF5CB1012C07D140F6C4
:103F8000F253584347F6F07390FBF3F010BD4FF037
:103F9000004010BD08B51AB108461146FFF7A3FF4F
:103FA000002008BD10B5041F54F8040F18B10021FB
:103FB000FEF79CFAF8E710BD704710B5044600F014
:103FC0000DF82046BDE81040FEF72CB9837BDB07D7
:103FD00001D5FEF769B97047FFF759BF10B54160C9
:103FE0000446FCF7E1FC206010BD10B50446FCF768
:103FF000DBFC2368C3F101030344606898422CBFD3
:104000000020012010BD0023036070470068704746
:10401000006800B9704703680BB11846FBE77047AA
:10402000036810B57BB100228B4207D10B680AB937
:10403000036000E0136000230B6010BD1C681A468B
:104040000CB12346F0E710BD38B505460C46FFF726
:10405000E7FF002323602846FFF7DAFF08B92C604A
:1040600038BD046038BD38B504460D46FFF7D8FFAB
:1040700023682B60256038BD0368002013B1013030
:104080001B68FBE7704700B1006870470023013AE6
:104090000160027143718371704710B54279837971
:1040A0000479D31A2340A3421FBF0368995443796C
:1040B0005A1C1FBF037913404371012008BF002021
:1040C00010BD837942790179D21A0A421FBF026872
:1040D000D25C01330B401ABF837110464FF0FF30A2
:1040E000704743695B6803B11847704713B50446CE
:1040F0001A20FEF7DFFC014601A800F02AF86369E8
:104100001B6813B1204601A9984702B010BD00F00A
:10411000A5B838B50D46FEF733FB044620B18560DF
:104120002846FFF709F9207338BD10B5FEF7D2FC19
:10413000FEF750FCFFF73AF800F0C1F8BDE8104078
:1041400002204FF400714FF4F0524FF4E123FFF7D7
:10415000BBB80B880380704708B50222FFF74CFDFF
:10416000B0FA80F0400908BD016801F18200B63163
:10417000FEF75EBC036803EB4101B1F882007047B3
:1041800010B5044630B1084611461A462346BDE82C
:104190001040184710BD00207047FEF7ADBE70B547
:1041A00004460D4652B150681668FEF7D9FC204609
:1041B0002946FEF7A7FE08B13246F3E770BDFEF7C9
:1041C000A1BE0047012070470020704710B504468B
:1041D000002162884068FFF7B7FD23886288A068E5
:1041E00000215A43BDE81040FFF7AEBD10B541882D
:1041F00000238B420CDA4268D418D25C32B9012217
:1042000022700188826801FB032010BD0133F0E7B2
:10421000002010BD30B5826844880023A3420DDA27
:104220008A4207D14168CA5C0AB1013ACA5442685D
:10423000D05C30BD058801332A44EFE7FF2030BD54
:104240008268914208D34388008800FB03208142A2
:104250002CBF00200120704700207047FEF78ABA6B
:10426000FEF7D2BA03691B6803B1184770470369A8
:104270005B6803B1184770477047F7B50F46FEF704
:104280004BFB03880446ADF80030BDF80060FEF734
:1042900057FBB300023383420FD802340025B542E6
:1042A0000BDA54F8040B01350190BDF804103846C0
:1042B000BDF80620FEF78CFFF1E703B0F0BDFEF776
:1042C0004BBA30B591B0FEF727FB0446FEF738FB3A
:1042D00001AD01462A462046FFF726F9044610B9EB
:1042E0004FF0FF3037E0FEF7FBFA0028F8D014203B
:1042F0009DF81410FEF7C4FB9DF81930BBB14AF6C7
:10430000CD31BDF81E208A4203D04FF6FF718A429C
:10431000E6D1022B0CBF0223082313F1FF3306D38F
:10432000EA5CFF2AF9D01B202946FEF7B7FB03A958
:104330001A20FEF7B3FB9DF816101320FEF7A0FB22
:104340009DF81C100A20FEF79BFB0E209DF81C1008
:10435000FEF796FB204611B030BD0120FEF7F2BFFC
:104360000020FEF7EFBF831C0020023313F8042C5B
:104370001AB113F8032C1044F7E77047072B2DE907
:10438000F8430746884614461D4607DC0846114692
:104390001A46FFF7B7F83870BDE8F8834FEAE3092B
:1043A000AAB1002608EB060021460822FFF7AAF86A
:1043B000B85501364E45F5D115F0070216D008EB79
:1043C00006002146FFF79EF8B855BDE8F88318F8B7
:1043D00004303B5501344C45F9D115F0070205D0A6
:1043E00008EB04000021FFF78DF83855BDE8F8838D
:1043F0002DE9F341FEF790FA04460220FEF770FA29
:1044000008B9002040E06078237803EB002080B2F8
:10441000FEF7B6F905460028F3D0FEF77DFA804690
:10442000287B10F0070318BF012303EBD000FEF731
:1044300057FA0028E5D0AC680026023414F8023C94
:104440000BB3192B14F8017C08EBE60106F0070208
:1044500009D901A83B46FFF791FF14F8020C01A906
:10446000FEF71CFB0CE00023ADF8043001A83B462E
:10447000FFF784FF14F8020CBDF80410FEF700FBF0
:104480003E440234DAE7284602B0BDE8F081C1F1CB
:104490001001CB1A9A400378C2F307210B43037033
:1044A00043781A4342707047072B2DE9F047804646
:1044B0000C4617461D4601DC12782BE04FEAE30953
:1044C00009B1002601E0084614E008EB0600BA5DD9
:1044D000214608230136FFF7DAFF4E45F5D115F0E6
:1044E00007031BD0BA5DC3F108002044024108EB6A
:1044F00006000DE03B5C08F8003001304845F9D17A
:1045000015F007030AD03A5CC3F108010A414044A0
:104510000021D2B2BDE8F047FFF7B9BFBDE8F08790
:104520002DE9F743047B054614F0070318BF012368
:1045300003EBD404A01CFEF721FA70B3FEF7F6F9E2
:10454000AB880370AB881B0A4370FEF7EFF9871C3A
:10455000224638460021FFF7F7FBAC6800250234FD
:1045600014F8020CC0B1192814F8016C07EBE50926
:1045700005F0070803D9FEF79DFA024604E0FEF7AE
:1045800087FA02AA22F8020D484641463346FFF751
:104590008BFF35440234E3E7012003B0BDE8F0832C
:1045A00038B504460D46084605220021FFF7CCFB2E
:1045B000637D98071CBF02232B70E37D99071CBF06
:1045C0000223AB70637D9A070BD0E37D9B0708D075
:1045D000A28B638B9A4204D1012323750023AB7015
:1045E00001E000232375637D03F00303022B03D056
:1045F000032B0CBF082300236B70E37D03F0030340
:10460000022B03D0032B0CBF08230023EB7038BD13
:1046100007B56946FFF7C4FF9DF800009DF801301B
:104620009DF80220033018449DF8033010440344E1
:104630009DF80400184403B05DF804FB73B504460C
:104640000D466946FFF7ACFFA37C627C03F00103D3
:104650001B0102F0010243EAC202237C9DF8010023
:1046600003F0070342EA0301E37C03F0010341EA9C
:104670004312237D03F0010342EA83132B70637D11
:1046800003F00302A37D03F003031B0143EA82034B
:10469000E27D43EA821302466B70237EAB709DF885
:1046A0000030022B01BF638B0526EB70638B12BFBA
:1046B00003261B0A2B713318DBB2991AC9B21AB13F
:1046C000013AA35C6B54F6E79DF80220022A08D158
:1046D000A18B5A1CE954A18BD2B20233090ADBB276
:1046E000A9549DF8036032469819C0B2811AC9B224
:1046F00022B1013AA018007A6854F5E702B070BD03
:1047000040000020000000002D04200000000000F8
:10471000474A20000000000035072000000000008C
:10472000474A200000000000C507200000000000EC
:10473000474A20000000000065072000000000003C
:10474000474A2000000000009507200000000000FC
:10475000474A200000000000F5072000000000008C
:104760004E4A200095082000B9082000873E20000E
:1047700001000000010000000100000000C0004036
:1047800000410D4000000000080000002C00000067
:1047900000000001FFFFFFFF050000000200000015
:1047A000020000000200000000D0004008410D405F
:1047B00002000000080000002C000000FFFFFFFFC7
:1047C0000100030306000000C1142000C1112000F5
:1047D00025122000C53E2000FD13200045102000BA
:1047E0008110200099102000990F2000C50F200093
:1047F000A9102000C91220009D132000CD13200015
:1048000007000000FF00000005000000ED000000B0
:1048100003000000D500000001000000C5000000FA
:1048200000000000B6000000FFFFFFFFB000000026
:10483000FDFFFFFFA1000000FBFFFFFF9100000054
:10484000F9FFFFFF88000000F7FFFFFF7200000084
:10485000F5FFFFFF62000000F3FFFFFF58000000BC
:10486000F1FFFFFF42000000E8FFFFFF0000000033
:10487000634A20002F3F2000273F20002B3F2000CD
:10488000774A20006B3F2000633F2000673F2000F5
:10489000ED402000E3402000FE4A20002B41200094
:1048A000D5272000034B20004D2D2000F52B2000A4
:1048B000912B20009D2B2000A92B2000B52B200040
:1048C000084B20009B412000BF4120009F41200059
:1048D00035302000F92E20001D30200097412000A7
:1048E00089302000D1302000FD3020009930200098
:1048F000104B2000C34120006D312000C541200035
:1049000061312000C94120007B4220007942200013
:10491000614320005B43200055342000C342200047
:10492000F1432000214520006743200000002D2D89
:104930002D2D2D2D2D2D2D2D2D2D2D2D2D2D2D2DA7
:104940002D2D2D2D2D2D2D2D2D2D2D2D2D2D2D2D97
:104950002D2D2D2D2D2D2D0A436F756E7465722012
:104960003D203078253038780A00564444203D20D8
:104970002564206D560A0054656D7065726174750A
:104980007265203D202564206D430A00416D6269F7
:10499000656E74206C696768742073656E736F72DE
:1049A000203D202564207261770A005265636569A5
:1049B0007665642025752062797465733A20273006
:1049C0007825303478270A00636332353338206421
:1049D000656D6F2070726F6365737300436F6E74E3
:1049E000696B6920332E3000544920536D61727415
:1049F00052463036202B20636332353338454D0024
:104A0000204E65743A2000204D41433A2000205248
:104A100044433A200052696D6520636F6E66696792
:104A20007572656420776974682061646472657367
:104A3000732000253032783A00253032780A00534E
:104A4000656E736F727300427574746F6E00414CC3
:104A500053006363323533382052462064726976DE
:104A60006572004F6E2D436869702054656D7065E6
:104A700072617475726500564444330030303030D2
:104A80003030303030303030303030303031323320
:104A900034353637383941424344454600303132A7
:104AA000333435363738396162636465660030788F
:104AB000003058002D002B00286E756C6C290025E5
:104AC0000020202020202020202020202020202006
:104AD000204374696D65722070726F636573730033
:104AE0004576656E742074696D65720053657269F0
:104AF000616C20647269766572001A100000526958
:104B00006D650043534D41006E756C6C72646300BB
:104B10006E756C6C7365630000000080C0E0F0F897
:034B2000FCFEFF99
:104B240000000000C8492000CD0220000000000061
:104B3400000000003F4A2000290620000000000079
:104B44001047200030472000404720002047200025
:104B54005047200060472000704820008048200013
:104B64000000000000000000524A20008D152000C3
:104B740000000000953F200000000000000000003D
:104B8400D14A20002D202000000000000000000079
:104B9400E04A2000912120000000000000000000F5
:104BA400EC4A2000812520000000000004000800D9
:104BB400910D002084040020BE000800890D00200F
:104BC4004A0600200C000800A20D0020A4040020C6
:104BD40034000200AA0D0020680500200C00080023
:094BE4009A0D00200805002019BB
:084BF000ECEAFF7F0100000068
:020000040027D3
:10FFD400FFFFFFF30000000000002000FFFFFFFF11
:10FFE400FFFFFFFFFFFFFFFFFFFFFFFFFFFFFFFF1D
:0CFFF400FFFFFFFFFFFFFFFFFFFFFFFF0D
:0400000500200000D7
:00000001FF
